S02B0000433A5C55736572735C726164656B5C446F776E6C6F6164735C4D61726C696E2D6275676669782D32AF
S31508010000D8FF0120891D0108D91D0108D91D01083C
S31508010010D91D0108D91D0108D91D010800000000D4
S31508010020000000000000000000000000D91D0108C2
S31508010030D91D010800000000D91D0108C74801089B
S31508010040D91D0108D91D0108D91D0108D91D0108A5
S31508010050D91D0108D91D0108514901085749010847
S315080100605D4901086349010869490108D91D010863
S31508010070D91D0108D91D0108D91D0108D91D010875
S31508010080D91D0108D91D0108D91D0108D91D010865
S31508010090D91D0108D91D0108D91D01086F49010893
S315080100A0F9180108311801080D1901085518010830
S315080100B0691801087D18010891180108D91D010858
S315080100C0D91D0108D91D0108D91D0108D91D010825
S315080100D0D91D01087D57010895570108AD57010833
S315080100E085490108994C0108D91D010821190108FA
S315080100F0E118010835190108F5180108D91D010883
S31508010100D91D0108D91D0108A5180108D91D01081D
S31508010110C9570108E1570108B9180108CD1801089E
S31508010120D91D0108D91D0108D91D0108D91D0108C4
S31508010130D91D0108D91D0108D91D0108D91D0108B4
S31508010140D91D0108D91D0108D91D0108D91D0108A4
S31508010150D91D0108D91D0108D91D0108F95701083A
S31508010160D91D0108D91D0108D91D0108D91D010884
S31508010170D91D0108D91D0108D91D01080000000073
S30D08010180D91D0108D91D01086A
S3150801019081F0004102E000BF83F0004330B54FEA29
S315080101A041044FEA430594EA050F08BF90EA020F96
S315080101B01FBF54EA000C55EA020C7FEA645C7FEA29
S315080101C0655C00F0E2804FEA5454D4EB5555B8BF4C
S315080101D06D420CDD2C4480EA020281EA030382EABD
S315080101E0000083EA010180EA020281EA0303362D4F
S315080101F088BF30BD11F0004F4FEA01314FF4801C22
S315080102004CEA113102D0404261EB410113F0004F33
S315080102104FEA03334CEA133302D0524263EB4303EA
S3150801022094EA050F00F0A780A4F10104D5F1200E88
S315080102300DDB02FA0EFC22FA05F2801841F10001E3
S3150801024003FA0EF2801843FA05F359410EE0A5F1B7
S3150801025020050EF1200E012A03FA0EFC28BF4CF0E8
S31508010260020C43FA05F3C01851EBE37101F000459E
S3150801027007D54FF0000EDCF1000C7EEB00006EEBAB
S315080102800101B1F5801F1BD3B1F5001F0CD3490835
S315080102905FEA30004FEA3C0C04F101044FEA44528C
S315080102A012F5800F80F09A80BCF1004F08BF5FEA13
S315080102B0500C50F1000041EB045141EA050130BDF3
S315080102C05FEA4C0C404141EB0101013C28BFB1F505
S315080102D0801FE9D291F0000F04BF01460020B1FA50
S315080102E081F308BF2033A3F10B03B3F120020CDA23
S315080102F00C3208DD02F1140CC2F10C0201FA0CF001
S3150801030021FA02F10CE002F11402D8BFC2F1200C65
S3150801031001FA02F120FA0CFCDCBF41EA0C0190401B
S31508010320E41AA2BF01EB0451294330BD6FEA040464
S315080103301F3C1CDA0C340EDC04F11404C4F120024F
S3150801034020FA04F001FA02F340EA030021FA04F361
S3150801035045EA030130BDC4F10C04C4F1200220FAB8
S3150801036002F001FA04F340EA0300294630BD21FAF6
S3150801037004F0294630BD94F0000F83F4801306BFBC
S3150801038081F480110134013D4EE77FEA645C18BFB0
S315080103907FEA655C29D094EA050F08BF90EA020F47
S315080103A005D054EA000C04BF1946104630BD91EA3F
S315080103B0030F1EBF0021002030BD5FEA545C05D142
S315080103C04000494128BF41F0004130BD14F5800481
S315080103D03CBF01F5801130BD01F0004545F0FE41F5
S315080103E041F470014FF0000030BD7FEA645C1ABF2A
S315080103F0194610467FEA655C1CBF0B46024650EA61
S31508010400013406BF52EA033591EA030F41F400218C
S3150801041030BD00BF90F0000F04BF0021704730B512
S315080104204FF4806404F132044FF000054FF00001E7
S3150801043050E700BF90F0000F04BF0021704730B5A8
S315080104404FF4806404F1320410F0004548BF40427D
S315080104504FF000013EE700BF42004FEAE2014FEAD2
S3150801046031014FEA02701FBF12F07F4393F07F4FAD
S3150801047081F06051704732F07F4208BF704793F0B0
S315080104807F4F04BF41F40021704730B54FF46074C3
S3150801049001F0004521F000411CE700BF50EA0102C6
S315080104A008BF704730B54FF000050AE050EA01026F
S315080104B008BF704730B511F0004502D5404261EBDF
S315080104C041014FF4806404F132045FEA915C3FF420
S315080104D0D8AE4FF003025FEADC0C18BF03325FEABD
S315080104E0DC0C18BF033202EBDC02C2F1200300FA6E
S315080104F003FC20FA02F001FA03FE40EA0E0021FA93
S3150801050002F11444BDE600BF70B54FF0FF0C4CF480
S31508010510E06C1CEA11541DBF1CEA135594EA0C0F32
S3150801052095EA0C0F00F0DEF82C4481EA030621EA6D
S315080105304C5123EA4C5350EA013518BF52EA0335A8
S3150801054041F4801143F4801338D0A0FB02CE4FF05A
S315080105500005E1FB02E506F00042E0FB03E54FF08A
S315080105600006E1FB03569CF0000F18BF4EF0010E82
S31508010570A4F1FF04B6F5007F64F5407404D25FEA7E
S315080105804E0E6D4146EB060642EAC62141EA555131
S315080105904FEAC52040EA5E504FEACE2EB4F1FD0C73
S315080105A088BFBCF5E06F1ED8BEF1004F08BF5FEAF1
S315080105B0500E50F1000041EB045170BD06F00046A3
S315080105C046EA010140EA020081EA0301B4EB5C0450
S315080105D0C2BFD4EB0C0541EA045170BD41F4801148
S315080105E04FF0000E013C00F3AB8014F1360FDEBF6D
S315080105F0002001F0004170BDC4F10004203C35DA49
S315080106000C341BDC04F11404C4F1200500FA05F3CB
S3150801061020FA04F001FA05F240EA020001F000426C
S3150801062021F0004110EBD37021FA04F642EB0601E2
S315080106305EEA430E08BF20EAD37070BDC4F10C040C
S31508010640C4F1200500FA04F320FA05F001FA04F2D0
S3150801065040EA020001F0004110EBD37041F10001BC
S315080106605EEA430E08BF20EAD37070BDC4F12005C7
S3150801067000FA05F24EEA020E20FA04F301FA05F22F
S3150801068043EA020321FA04F001F0004121FA04F2D7
S3150801069020EA020000EBD3705EEA430E08BF20EAA7
S315080106A0D37070BD94F0000F0FD101F000464000E1
S315080106B041EB010111F4801F08BF013CF7D041EA63
S315080106C0060195F0000F18BF704703F00046520067
S315080106D043EB030313F4801F08BF013DF7D043EA38
S315080106E00603704794EA0C0F0CEA135518BF95EAEE
S315080106F00C0F0CD050EA410618BF52EA4306D1D175
S3150801070081EA030101F000414FF0000070BD50EA93
S31508010710410606BF1046194652EA430619D094EA1D
S315080107200C0F02D150EA013613D195EA0C0F05D107
S3150801073052EA03361CBF104619460AD181EA03015B
S3150801074001F0004141F0FE4141F470014FF0000013
S3150801075070BD41F0FE4141F4780170BD70B54FF0AE
S31508010760FF0C4CF4E06C1CEA11541DBF1CEA13552E
S3150801077094EA0C0F95EA0C0F00F0A7F8A4EB050410
S3150801078081EA030E52EA03354FEA013100F0888007
S315080107904FEA03334FF0805545EA131343EA1263D0
S315080107A04FEA022245EA111545EA10654FEA002685
S315080107B00EF000419D4208BF964244F1FD0404F53E
S315080107C0407402D25B084FEA3202B61A65EB03059A
S315080107D05B084FEA32024FF480104FF4002CB6EB57
S315080107E0020E75EB030E22BFB61A754640EA0C00D7
S315080107F05B084FEA3202B6EB020E75EB030E22BF17
S31508010800B61A754640EA5C005B084FEA3202B6EB57
S31508010810020E75EB030E22BFB61A754640EA9C0016
S315080108205B084FEA3202B6EB020E75EB030E22BFE6
S31508010830B61A754640EADC0055EA060E18D04FEAA4
S31508010840051545EA16754FEA06164FEAC30343EA44
S3150801085052734FEAC2025FEA1C1CC0D111F4801F11
S315080108600BD141EA00014FF000004FF0004CB6E70A
S3150801087011F4801F04BF01430020B4F1FD0C88BFA9
S31508010880BCF5E06F3FF6AFAEB5EB030C04BFB6EBB4
S31508010890020C5FEA500C50F1000041EB045170BDA7
S315080108A00EF0004E4EEA113114EB5C04C2BFD4EBD4
S315080108B00C0541EA045170BD41F480114FF0000E58
S315080108C0013C90E645EA060E8DE60CEA135594EAD4
S315080108D00C0F08BF95EA0C0F3FF43BAF94EA0C0FD7
S315080108E00AD150EA01347FF434AF95EA0C0F7FF44C
S315080108F025AF104619462CE795EA0C0F06D152EAA0
S3150801090003353FF4FDAE1046194622E750EA410683
S3150801091018BF52EA43067FF4C5AE50EA41047FF494
S315080109200DAF52EA43057FF4EBAE12E74FF0FF3CF9
S3150801093006E000BF4FF0010C02E000BF4FF0010CCA
S315080109404DF804CD4FEA410C7FEA6C5C4FEA430C43
S3150801095018BF7FEA6C5C1BD001B050EA410C0CBF92
S3150801096052EA430C91EA030F02BF90EA020F0020F4
S31508010970704710F1000F91EA030F58BF994208BF5B
S3150801098090422CBFD8176FEAE37040F00100704718
S315080109904FEA410C7FEA6C5C02D150EA013C07D16F
S315080109A04FEA430C7FEA6C5CD6D152EA033CD3D0BA
S315080109B05DF8040B704700BF8446104662468C46B4
S315080109C01946634600E000BF01B5FFF7B7FF0028E7
S315080109D048BF10F1000F01BD4DF808EDFFF7F4FF10
S315080109E00CBF012000205DF808FB00BF4DF808ED9B
S315080109F0FFF7EAFF34BF012000205DF808FB00BFBE
S31508010A004DF808EDFFF7E0FF94BF012000205DF8DF
S31508010A1008FB00BF4DF808EDFFF7CEFF94BF012094
S31508010A2000205DF808FB00BF4DF808EDFFF7C4FF8D
S31508010A3034BF012000205DF808FB00BF4FEA410CD6
S31508010A407FEA6C5C02D150EA013C0AD14FEA430CB9
S31508010A507FEA6C5C02D152EA033C02D14FF00000F6
S31508010A6070474FF0010070474FEA410212F5001234
S31508010A7015D211D56FF47873B3EB625212D94FEAD6
S31508010A80C12343F0004343EA505311F0004F23FAC0
S31508010A9002F018BF404270474FF00000704750EA15
S31508010AA0013005D111F0004008BF6FF000407047D2
S31508010AB04FF00000704700BF4A0011D212F500122C
S31508010AC011D20DD56FF47873B3EB62520ED44FEA97
S31508010AD0C12343F0004343EA505323FA02F0704717
S31508010AE04FF00000704750EA013002D14FF0FF3055
S31508010AF070474FF0000070474FEA4102B2F1E043F8
S31508010B0024BFB3F5001CDCF1FE5C0DD901F0004CE5
S31508010B104FEAC0024CEA5070B2F1004F40EB830035
S31508010B2008BF20F00100704711F0804F21D113F161
S31508010B303872BCBF01F00040704741F480114FEA9A
S31508010B405252C2F11802C2F1200C10FA0CF320FA23
S31508010B5002F018BF40F001004FEAC1234FEAD32340
S31508010B6003FA0CFC40EA0C0023FA02F34FEA4303AA
S31508010B70CCE77FEA625307D150EA01331EBF4FF033
S31508010B80FE4040F44000704701F0004040F0FE404E
S31508010B9040F40000704700BF53B94AB9002908BF9D
S31508010BA000281CBF4FF0FF314FF0FF3000F00CB8A2
S31508010BB0ADF1080C6DE904CE27F068F8DDF804E01C
S31508010BC0DDE9022304B07047704700BF034613F8F6
S31508010BD0012B002AFBD1181A0138704700000000C2
S31508010BE001F0FF01102A2BDB10F0070F08D010F8CF
S31508010BF0013B013A8B422DD010F0070F42B3F6D1D3
S31508010C00F0B441EA012141EA014122F007047FF0EB
S31508010C1000070023F0E80256083C85EA010586EA42
S31508010C20010685FA47F5A3FA87F586FA47F6A5FA7E
S31508010C3087F68EB9EED1F0BC01F0FF0102F007028A
S31508010C4032B110F8013B013A83EA010313B1F8D135
S31508010C500020704701387047002D06BF3546033816
S31508010C60073815F0010F07D1013015F4807F02BF4F
S31508010C70013015F4C03F0130F0BC0138704700BFA0
S31508010C8010B5054C237833B9044B13B10448AFF3B7
S31508010C9000800123237010BD84030020000000009A
S31508010CA064BD030808B5034B1BB103490348AFF3F9
S31508010CB0008008BD000000008803002064BD030809
S31508010CC07FB50F220223CDE9012300214FF4A0535A
S31508010CD0CDE9031301A84FF480530521059302F0CA
S31508010CE003FBB0FA80F0400907B05DF804FB000089
S31508010CF010B58EB01B4B002400941A6C42F080523A
S31508010D001A641B6C03F080530093009B164B0194E5
S31508010D101A6842F480421A601B6803F480430193FF
S31508010D20A042019B4FF0010302930CBF4FF480339D
S31508010D304FF4A0234FF4800203930223CDE908322E
S31508010D4008214FF4A8720C9302A80723CDE90A12C9
S31508010D500D9302F0F3F818B9FFF7B2FF0EB010BD04
S31508010D602046FBE7003802400070004010B58EB0FF
S31508010D700024184B00941A6C42F080521A641B6CBA
S31508010D8003F080530093009B134B01941A6842F4B5
S31508010D9080421A601B68039403F480430193019B04
S31508010DA003231022029301230593069202230A9232
S31508010DB04FF4A872CDE90834CDE90B2302A807231D
S31508010DC00D9302F0BBF818B9FFF77AFF0EB010BD04
S31508010DD02046FBE7003802400070004007B50020B6
S31508010DE0FFF786FF58B90120FFF782FF38B9FFF7E9
S31508010DF0BDFF20B9094840F2051103F053FF00234E
S31508010E000193074B1A6B42F480121A631B6B03F4A6
S31508010E1080130193019B03B05DF804FB64C30308C7
S31508010E2000380240B0F86230013303F03F03A0F8FE
S31508010E306230B0F86230B0F85E009BB298424FF06B
S31508010E40FF3018BF00207047B0F83431B0F83001D0
S31508010E50181A00F07F007047B0F83431B0F8302125
S31508010E609BB293421ABFD0F82831985C4FF0FF30F5
S31508010E70704713B50DF10701044604F0A5FB90B9B7
S31508010E80B4F86030B4F85C20013303F07F03934271
S31508010E9009D0B4F86020616D9DF8070092B29BB243
S31508010EA08854A4F8603002B010BD0000012370B563
S31508010EB00374B0F92231013304460E4600F1D40514
S31508010EC008D190F838312BB1002380F838312846FB
S31508010ED004F0E0FBB4F832114B1C03F03F03B4F8FD
S31508010EE0362192B29342FAD0D4F82C212846565488
S31508010EF0A4F8323104F056FB18B90349284604F020
S31508010F00A5FB012070BD00BF250E0108037C33B186
S31508010F10B0F83221B0F836319BB29A42FAD170470D
S31508010F2000F11103914208BF4FF0FF31A0F82021CB
S31508010F30C0F8283100F191020023A0F83431C0E944
S31508010F404B23A0F82211A0F83631704770B54FF43B
S31508010F507A7316460022C0E90123194B03604FF63E
S31508010F60FF73A0F82231174B984204460D4619D152
S31508010F70154A164BD168926833F8111033F81230B6
S31508010F80A0F82211A0F82031012E04BF4FF6FF73F5
S31508010F90A4F822312046B4F92021B4F92211FFF729
S31508010FA0BFFF70BD0A49284603F04AFE0949A4F85D
S31508010FB02201284603F044FEA4F82001E4E700BF15
S31508010FC014C50308A0030020C4C3030804C4030806
S31508010FD050C20308D4C2030838B50546044655F875
S31508010FE0D43B5B699847284604F05AFAB4F830317D
S31508010FF0A4F8343138BDB0F92231013310B50446AD
S315080110000ED103685B69984794F8383143B90123CF
S3150801101084F8383104F1D400BDE8104004F04ABB25
S3150801102010BD000002F00703023BDBB2042B2DE9D9
S31508011030F7430E46C0F83C1198BF1F4980F839217D
S3150801104098BFCC5C02F0300388BF0024302B0546DC
S3150801105026D101344FF4C06712F0080F14BF4FF4BC
S3150801106000594FF00009082C21D0092C21D013482A
S315080110704FF4C17103F016FE05F1D40831463B461B
S3150801108022464046CDF8009004F006FA2846FFF7B6
S31508011090B2FF0B49404603B0BDE8F04304F0B0BACD
S315080110A012F020071CBF01344FF48067D4E70024EF
S315080110B0E2E74FF48054DFE706C50308A8C403082E
S315080110C0730E010810B50446FFF795FFB4F83421ED
S315080110D0B4F8303192B29A421FBFD4F82821D05CB5
S315080110E0013303F07F0314BFA4F830314FF0FF300A
S315080110F010BD0000024903480022FFF727BF00BFC1
S3150801110000440040A0030020836810B504462BB1B3
S315080111100322014698470023C4E90233204610BD3D
S31508011120836810B5044613B1032201469847204641
S3150801113010BD4B1E032B9ABF880004384FF0FF30B1
S31508011140704700000139435C2BB1022907D8054BCA
S3150801115033F811007047032901D8034BF8E74FF01C
S31508011160FF30704792C5030898C503082DE9F04179
S3150801117004460F46FFF7DDFF431C054604D13F48E9
S3150801118040F24D1103F08EFD7E1E032E28D83C4BEE
S3150801119013F8068039462046FFF7D4FF013004D1FB
S315080111A0364840F2571103F07DFD04EB071758370F
S315080111B0BB683BB123696FEA08021A61DA6842EA39
S315080111C00802DA6004EB46039B88013B0B2B4BD8DC
S315080111D0DFE803F01B1B1B1B0E0E1B1B4C4C4C287C
S315080111E026484FF4A9714FF0FF3803F05BFDD1E7AC
S315080111F0A35D04F1100029461BB1BDE8F04102F0D8
S31508011200A3BDBDE8F04102F067BDA35D04F110007E
S3150801121029461BB1BDE8F04102F080BDBDE8F041A9
S3150801122002F03ABD294604F1100002F057FD032EDB
S3150801123098BF144B256994BF9A574FF0FF32114650
S315080112402046FFF77FFF2B6A1843BB6828625BB10C
S31508011250013A032A9ABF0A4B9A5C4FF0FF32D343ED
S315080112602B61EB681343EB60BDE8F081294604F175
S315080112701000BDE8F04102F031BD00BF34C50308D6
S31508011280A0C50308A4C50308036E10B5044653B1E7
S3150801129050F8103F6FF001021A61DA6842F0010254
S315080112A0DA6002F01DFA20460121FFF75FFF2046AA
S315080112B00221FFF75BFF20460321FFF757FF204670
S315080112C00421BDE81040FFF751BF0369013999624E
S315080112D0704700002DE9F0418CB00E460446904651
S315080112E01F46FFF726FF411C054604D14B4840F22D
S315080112F04D2103F0D7FC013E04EB4603A3F8048015
S315080113004FF6FF7305932369D5B95B6B06930020E6
S315080113104FF6FF720123CDE90900CDE90123CDE995
S315080113200300079008900B90B8F10C0F1ED8DFE860
S3150801133008F0101016323537404244464E515300D4
S31508011340042D01D19B6BE1E7082D0CBFDB6B1B6CF0
S31508011350DCE705902A4605A904F1100004E01023EC
S3150801136005932A4605A9E01802F038FB7B1C0FD025
S31508011370384603F047F8A8424AD12949384603F0C6
S315080113802DFC2749384603F06DFCC0F30050A055E3
S315080113900CB0BDE8F08120230593DBE73023FBE79A
S315080113A060232A4605A904F11000059302F042FBC1
S315080113B0DCE77023F5E75023EEE74023ECE70190DD
S315080113C02A4601A904F1100002F0CEFBCEE702235A
S315080113D00193F5E70A23FBE704F1100801A9019037
S315080113E02A46404602F0C0FB032E9ABF0D4B995779
S315080113F04FF0FF3104EB41030C225A8020460223A9
S31508011400CDE90133FFF795FE01A902464046DBE720
S31508011410024840F2B72103F045FCB2E734C5030898
S3150801142044BF0308A4C50308013903299ABF00EB81
S31508011430410080880020704703691A6819B142F093
S3150801144080021A60704722F08002FAE7F8B504466E
S315080114500E461546006903F0D9FD2A46314601F0C4
S31508011460FFF8206903F034FE0746206903F0CEFD34
S31508011470874206D0206903F02BFE2A46314601F041
S31508011480EFF8C4E91465F8BD0269D36823F00103CE
S31508011490D3605830FFF738BE006E003818BF0120F8
S315080114A070470121103002F02DB90000264A9042FA
S315080114B003462ED0B0F1804F2DD0A2F57C42904242
S315080114C02BD002F58062904229D002F580629042C3
S315080114D027D04FF6FF701D4A934224D01C4A9342E7
S315080114E023D01C4A934222D002F57052934220D04F
S315080114F0194A93421FD0194A93421ED0184A934259
S315080115001DD0184A93421CD0174A934208BF0D2092
S3150801151070470020DFE70120DDE70220DEE7032030
S31508011520DFE70420E4E70520E5E70620E6E70720EC
S31508011530E7E70820E8E7092070470A2070470B20EB
S3150801154070470C20704700BF0000014000100040A2
S3150801155000140040000401400044014000480140D5
S3150801156000180040001C004000200040014670B5EC
S31508011570044651F8100FFFF799FF0546084603F090
S31508011580B3FC094A002342F8253004F15806E36002
S3150801159004F1A805B54204D0103D2846FFF7C0FD61
S315080115A0F8E7204670BD00BFE0040020F8B5002327
S315080115B003660367C0F88030C0F89030C0F8A030E1
S315080115C0044608460D46FFF771FF4FF6FF7398422A
S315080115D0064603D11E482F2103F064FB1D4A2561E7
S315080115E004F10C0342F8263000230D2204F11006FB
S315080115F0C4E90C33C4E90E33C4E91033C4E914232E
S3150801160084F82C30A36484F84C3084F84D30E460B7
S31508011610304603F071FB04F1580504F1A807284682
S315080116201035FFF771FDBD42F9D100234FF6FF7260
S31508011630C4E90033C4E90632C4E90833A360636127
S315080116408023A362304602F079F92046F8BD00BF2F
S3150801165034C50308E004002030B587B014220546D6
S31508011660002101A827F000FE0024694601A800947C
S3150801167001F0F6FE286903F0B9FD012809D0022810
S3150801168015D00E4840F2FF4103F00CFB204607B087
S3150801169030BD049C01F0C4FEB4F5C05F05D00AD87C
S315080116A024F48064B4F5805FF1D14000EFE7059C2E
S315080116B001F0C6FEF0E7B4F5E05FF5E734C50308C7
S315080116C0012A38B505460C4607D0022A12D004B1BC
S315080116D0013C2B69DC62EC6138BDFFF7BDFF0849A7
S315080116E0B0FBF1F044432B69210C99620131B4FB3B
S315080116F0F1F4ECE7FFF7B0FFB0FBF4F4F3E700BF52
S3150801170040420F0000000000036970B55C6A9D6ADB
S31508011710012905F1010503D002291CD0204670BD17
S31508011720FFF79AFF064604FB05F0FEF773FE0EA3C4
S31508011730D3E90023FEF7E8FE044630460D46FEF7D8
S3150801174069FE02460B4620462946FFF707F8FFF7CA
S31508011750B3F90446E2E7FFF77FFF6C43B0FBF4F405
S31508011760DCE700BFAFF300800000000080842E4153
S315080117702DE9F04180461D461446FFF7DAFCD8F8F4
S3150801178010309E6A431C074606F1010604D1264815
S3150801179040F2F62103F086FA822D34D01ED8102D98
S315080117A00BD865B1D8F81030DA6A02FB0442012475
S315080117B0AC40013CB2FBF4F401E0812D19D0D8F814
S315080117C01030DA6A4FF6FF718A4203D1B4F5803FC9
S315080117D008BF1446F7B95C63BDE8F081832DEED1E5
S315080117E0D8F81030DA6A02FB04446422B4FBF2F436
S315080117F0E5E74046FFF730FF0C4AB0FBF2F04443F9
S31508011800B4FBF6F4DBE74046FFF726FF7443B0FB6B
S31508011810F4F4D4E7042F01D19C63DDE7082F0CBF4C
S31508011820DC631C64D8E700BF34C5030840420F00D7
S3150801183010B5074C206810B1043001F077FF606AD3
S3150801184020B1BDE81040043001F070BF10BD00BFE3
S31508011850E0040020034B186810B1043001F066BF9C
S31508011860704700BFE0040020034B586810B10430EC
S3150801187001F05CBF704700BFE0040020034B986885
S3150801188010B1043001F052BF704700BFE0040020D8
S31508011890034BD86810B1043001F048BF704700BF48
S315080118A0E0040020034B186910B1043001F03EBF73
S315080118B0704700BFE0040020034B586910B104309B
S315080118C001F034BF704700BFE0040020034B98695C
S315080118D010B1043001F02ABF704700BFE0040020B0
S315080118E0034BD86910B1043001F020BF704700BF1F
S315080118F0E0040020FFF7F4BF034B186A10B1043067
S3150801190001F014BF704700BFE0040020034B986A3A
S3150801191010B1043001F00ABF704700BFE00400208F
S31508011920034BD86A10B1043001F000BF704700BFFD
S31508011930E0040020034B586B10B1043001F0F6BEE9
S31508011940704700BFE004002038B5002383608B6828
S3150801195004460D462BB102229847EB68E360AB6853
S31508011960A360204638BD30B587B002AD0446284687
S31508011970FFF7EAFF95E803006B4683E8030094E85E
S31508011980030085E8030093E80300049BA268A360AB
S31508011990059B049284E80300E268E3602846059201
S315080119A0FFF7BEFB204607B030BD38B504460D46E5
S315080119B0236E583013B1FFF7D6FF38BDFFF7D3FFB3
S315080119C0AB68002BF9D023696FF001021A61DA6856
S315080119D042F00102DA60F0E7826810B50AB926F02A
S315080119E0B7FABDE81040C3681847000010B50446A9
S315080119F020B9074840F2264103F054F9204603F07E
S31508011A0079F90068036E13B15830FFF7E5FF10BD89
S31508011A1034C50308FFF7EABF38B5054620B91148AA
S31508011A2040F2394103F03EF92B7F013B072B11D8D0
S31508011A30DFE803F0150410111010101302242846CC
S31508011A4003F058F9240100685834204483680BB11F
S31508011A50FFF7C2FF38BD0324F1E70424EFE70124A9
S31508011A60EDE700BF34C50308FFF7D6BFFFF7D4BFBC
S31508011A70F8B505460E4617460024BC4207D02B6822
S31508011A80315D1B682846984708B10134F5E72046B9
S31508011A90F8BD10B5044600F037FBE0602368204620
S31508011AA0DB689847002808DA00F02EFBE368C01ABD
S31508011AB0A3689842F2D34FF0FF3010BDF8B5064639
S31508011AC00D4617460024BC4207D03046FFF7E1FF12
S31508011AD0031E02DB2B550134F5E72046F8BD2DE937
S31508011AE0F0410746884616461D4673B10024384616
S31508011AF0FFF7CFFF031E05DB434503D033550134FA
S31508011B00A542F4D12046BDE8F0811C46FAE70368F0
S31508011B101847012A03D0022A03D000207047016022
S31508011B20FBE70B680360F8E708B127F04FBC70477D
S31508011B3010B5044628B127F06DFC90FBF4F303FBBE
S31508011B401404204610BD884210B5044603DA081A63
S31508011B50FFF7EEFF0444204610BD000008B5044B0C
S31508011B602BB10448FFF770F908B1AFF3008008BD3F
S31508011B7000000000A00300202DE9F04F57EC106B80
S31508011B80A5B004468846154610EE100A0022002321
S31508011B903946FEF72BFF00286DD007F100431F4693
S31508011BA04FF0010A3F494FF000090020C84564DC9F
S31508011BB002460B4630463946FEF7F0FA0F46064608
S31508011BC0FEF77AFF8146FEF725FC02460B463046AC
S31508011BD03946FEF7E1FA0F46334906464FF0000B40
S31508011BE00020D84550DC32463B46FEF78DFCFEF711
S31508011BF03BFF434600904A46BAF1000F4BD02B49AA
S31508011C000026284627F08EFC31467D2204A8039635
S31508011C1027F02AFBB4422846BCBF64420126FEF7D8
S31508011C20D5FFA04223D28022202103A827F01CFB3E
S31508011C302846FEF7CBFF24AB241A1C44002304F8DC
S31508011C40843C56BB2846FEF7C1FF013027F0C6FA89
S31508011C502946044627F0BEFC03A9284627F0BAFC04
S31508011C602146284627F09AFC204627F0BFFA28463F
S31508011C7025B0BDE8F08F824694E70D4B0022FEF7AA
S31508011C806DFD09F1010991E7094B0022FEF73CFCBC
S31508011C900BF1010BA5E70749B2E703A9284627F087
S31508011CA07DFCE4E70000E03F0000F03FA8C503081B
S31508011CB000002440A9C5030802F02ABE704708B5EA
S31508011CC0032000F0BBFCBDE80840FFF7F5BF08B5E7
S31508011CD0AFF3008005F08AFA05F046FAFFF73EFFF2
S31508011CE0FAE727F07BBA27F081BA00000F280CD84B
S31508011CF0234B53F82030512B25D9A3F153020F2A30
S31508011D0017D94FF0FF3318467047A0F153020F2A2F
S31508011D1016D81B4B53F82230512B14D9522BF0D914
S31508011D20622BEED8164B53F822300F2A98BFA3F12F
S31508011D305302134B53F82220124B33F9123005E0A4
S31508011D40512806D803460F4A32F913305A1CDAD1FC
S31508011D5001E052280AD865280BD066280CD06328DA
S31508011D6040F2011318BF4FF0FF33CCE76228F2D8CF
S31508011D70D8E74FF48173C6E740F20313C3E700BF00
S31508011D80C4C3030804C40308DFF834D0002103E000
S31508011D900C4B5B58435004310B480C4B42189A4282
S31508011DA0F6D30B4A02E0002342F8043B094B9A4258
S31508011DB0F9D302F079FF27F0EDF9FFF788FF7047AD
S31508011DC0D8FF01208C260708000000208403002084
S31508011DD0840300201CF90020FEE791420FD008D9A0
S31508011DE0891A01238B40984208D30130C84001382B
S31508011DF0704720B10130511A8840F8E70020704732
S31508011E00431E1F2B13D80C4B0C2818600B4B02DDF5
S31508011E100C221A607047062801DC0622F9E7082811
S31508011E2001DC0822F5E70A28F2DC0A22F1E7044870
S31508011E30722102F037BF00BF080000200000002011
S31508011E40B3C5030810B5FFF751FF431C0AD0064C6A
S31508011E50216802F0F1FB054B21681A68BDE81040BC
S31508011E60FFF7BBBF002010BD0000002008000020BE
S31508011E7051282DE9F04105460E462AD8384B33F943
S31508011E801040671C69D03749374F204602F0FFFDDD
S31508011E9050B3C4F30311354A52F8210004F00F0375
S31508011EA020FA03F5ED075FBF012505FA03F303439E
S31508011EB042F82130304639684FF00C0248BF0025F8
S31508011EC0FFF78BFF2A4601462046BDE8F04102F09E
S31508011ED0C9BAA0F153030F2B3FD8254A52F823203C
S31508011EE01F4B33F91240CCE72249204602F0CFFDB9
S31508011EF08046F8B1C4F303111C4A52F8210004F0D4
S31508011F000F0520FA05F3DB075FBF0123AB40034347
S31508011F1042F82130184B39681D6830462A46FFF7C2
S31508011F205CFF16490246EBB220460968BDE8F04156
S31508011F3002F026BC2846012100F022F8396830460D
S31508011F400822FFF74AFF7F2898BF4146284688BFDF
S31508011F500121BDE8F04100F079B8BDE8F08100BF84
S31508011F6004C4030820BF0308100000201805002038
S31508011F70C4C3030844BF0308040000200C00002062
S31508011F8051282DE9F0410E4627D82A4B33F910403E
S31508011F90621C4CD0284DC4F3031704F00F0855F8FA
S31508011FA0273023FA08F3DB0710D52449204602F027
S31508011FB06EFDE0B1204602F0AFFA012303FA08F2FA
S31508011FC055F8273023EA020345F82730052E28D885
S31508011FD0DFE806F017231D1F212553380F2826D8B9
S31508011FE0174B53F82020134B33F91240D0E7154904
S31508011FF0204602F04CFD0028DFD0204602F012FCF4
S31508012000DBE700212046BDE8F04102F04FBD102173
S31508012010F8E72021F6E70321F4E70121F2E7092190
S31508012020F0E7BDE8F0410848492102F03BBEBDE8AA
S31508012030F08100BF04C403081805002020BF030867
S31508012040C4C3030844BF03080EC60308512814D89D
S31508012050114B33F91030C3F30312082A98BF0F48FE
S3150801206003F00F0398BF50F822200D4888BF0022BD
S3150801207050F8233071B19361704753380F289DBFCB
S31508012080084B53F82020044B4FF0FF3398BF33F920
S315080120901230E0E71B04EEE704C403081C00002025
S315080120A0D8C60308C4C30308512814D8124B33F9F8
S315080120B01030C3F30312082A1AD8104903F00F0384
S315080120C051F822200E49126951F8233093430CBF67
S315080120D001200020704753380F289DBF094B53F83C
S315080120E02020054B4FF0FF3398BF33F91230E0E754
S315080120F000231B69FFDE00BF04C403081C0000207F
S31508012100D8C60308C4C3030802F0DABB02F0BABB97
S3150801211038B5044648B102F0D3FB0546FFF7CEFDB4
S3150801212002F0CEFB431BA342F8D338BD704700002B
S3150801213038B50E4A0E4B054618784FF47A73B3FB39
S31508012140F0F31068B0FBF3F000F0DEFA044658B974
S315080121500F2D09D8024629464FF0FF3000F080FAC4
S31508012160044B20461D6038BD0120FCE744000020D1
S31508012170140000201800002008B50B4B1A6842F419
S3150801218000721A601A6842F480621A601A6842F488
S3150801219080721A60032000F051FA0020FFF7C8FF89
S315080121A0FFF7C4FF002008BD003C0240034A044B68
S315080121B011681B780B441360704700BFE8F80020CC
S315080121C014000020014B1868704700BFE8F800208A
S315080121D038B50446002800F09B80056C25B902F045
S315080121E0B7F9656484F83C50236CDB0600F18E80F0
S315080121F0236C23F4885323F0020343F00203236478
S31508012200444B5A6822F440325A605A6861680A4354
S315080122105A60236821695A6822F480725A605A689A
S3150801222042EA01225A605A68A16822F040725A604D
S315080122305A680A435A609A68E16822F400629A6009
S315080122409A680A439A603449A26A8A4252D09968BE
S3150801225021F07061996099680A439A609A68E16AFF
S3150801226022F040529A609A680A439A609A6822F064
S3150801227002029A609A68217E42EA41029A6094F8BB
S315080122802020002A3ED05A68616A42F400625A60E8
S315080122905A6822F460425A605A68013942EA413260
S315080122A05A60DA6AE16922F47002DA62DA6A013995
S315080122B042EA0152DA629A6822F400729A609A68CE
S315080122C094F8301042EA41229A609A68616922F4C8
S315080122D080629A609A68002042EA81229A60606464
S315080122E0236C23F0030343F001032364002384F8DA
S315080122F03C3038BD9A6822F070629A609A6822F07A
S315080123004052B2E75A6822F40062C9E70120EDE7B4
S315080123100120EEE7002301400100000F38B504460D
S31508012320A0B1036C43F00203036403689A6822F0C0
S3150801233001029A609D6815F0010503D102F050F972
S3150801234065642564002084F83C0038BD0120FCE75B
S3150801235082B00023019390F83C30012B60D0012311
S3150801236080F83C3003689A68D20705D59A68D10780
S3150801237014D4002002B070479A682A4942F0010233
S315080123809A60294A1268B2FBF1F202EB4202019203
S31508012390019A002AEAD0019A013AF8E7026C22F476
S315080123A0E06222F0010242F4807202645A68520520
S315080123B041BF026C22F4405242F480520264026C1C
S315080123C012F480521CBF426C22F0060242640022BB
S315080123D080F83C206FF022021A60144A516811F005
S315080123E01F0F134919D18B4207D001F580718B4212
S315080123F00CD1526812F01F0FBBD1986810F04050EB
S31508012400B7D19A6842F080429A60B3E709498B428C
S31508012410AFD1526812F0100FEEE78B42A9D1ECE763
S315080124200220A7E740420F00440000200023014094
S31508012430002001400022014090F83C30012B14D0C5
S3150801244003689A6822F001029A609B68DB0707D441
S31508012450036C23F4885323F0010343F00103036457
S31508012460002380F83C3018467047022070470368FD
S315080124709A68520570B504460D460BD59B68DE056C
S3150801248008D5036C43F020030364002380F83C302D
S31508012490012070BDFFF796FE064623681A68910764
S315080124A00CD56FF012021A60226C42F40072226493
S315080124B09A6812F0405F13D00020EAE7681CEDD055
S315080124C045B9236C43F004032364002384F83C30A4
S315080124D00320DEE7FFF776FE801BA842DDD9F0E789
S315080124E0207E0028E8D1DA6A12F4700F02D09B68C0
S315080124F05A05E1D4236C23F480732364236CDB042B
S31508012500DAD4236C43F001032364C2E70368D86C69
S3150801251070470000F7B50023019390F83C30012B72
S3150801252066D0012380F83C300D6803688E68092D52
S31508012530ACB231D904EB4402DF681E3A4FF0070CFE
S315080125400CFA02FC27EA0C07DF60DF6806FA02F2DA
S315080125503A43DA604968062901EB81022CD8596B9E
S31508012560053A1F26964021EA06015963596B04FA72
S3150801257002F20A435A632C4A934207D1122D39D1E2
S31508012580D2F8043343F48003C2F80433002380F8F5
S315080125903C30184603B0F0BD1F6905EB45024FF004
S315080125A0070C0CFA02FC27EA0C071F611F6906FAD9
S315080125B002F23A431A61CDE70C294FF01F010BD8F5
S315080125C01E6B233A914026EA01011963196B04FA35
S315080125D002F20A431A63CEE7DE6A413A914026EAD5
S315080125E00101D962D96A04FA02F20A43DA62C2E738
S315080125F00220CFE7A5F11003012BC7D80B4A536870
S31508012600102D43F400035360C0D1094B094A1B68D6
S31508012610B3FBF2F20A2353430193019B002BB5D076
S31508012620019B013BF8E700BF002001400023014060
S315080126304400002040420F00006C70470749CA68F1
S3150801264022F4E0620302120403F4E063120C13435A
S3150801265043F0BF6343F40033CB60704700ED00E0FD
S31508012660164B30B5DC68C4F30224C4F10705231DF3
S31508012670042D28BF0425062B4FF0FF338CBF033CDE
S31508012680002403FA05F521EA0501A34022EA03021B
S31508012690A140002841EA0203ACBF00F16040084AA4
S315080126A04FEA0313B8BF00F00F00DBB2AABF00F56B
S315080126B06140135480F8003330BD00BF00ED00E0DF
S315080126C014ED00E0002808DB4209012300F01F0091
S315080126D003FA00F0014B43F82200704700E100E0DD
S315080126E000280DDB4309012200F01F0002FA00F061
S315080126F02033044A42F82300BFF34F8FBFF36F8F8D
S31508012700704700BF00E100E00138B0F1807F0AD2CE
S31508012710064B074A5860F02182F823100020072249
S3150801272098601A6070470120704700BF10E000E00A
S3150801273000ED00E0002809DB4309012200F01F0033
S3150801274002FA00F06033024A42F82300704700BFDC
S3150801275000E100E008B503F0EFF808BD10B504463E
S3150801276068B1037903F0FF0213B9427101F05AFE09
S3150801277002232371002001232061237110BD01204A
S31508012780FCE710B5044640B10223037101F0AEFE21
S31508012790002020616071207110BD0120FCE710B591
S315080127A04379012B4FF0020317D003710368012205
S315080127B01C688A4022431A6089B919681A684C0745
S315080127C007D502F03802382A03D15A6842F00102C5
S315080127D05A600123037100234371184610BD196815
S315080127E01A684903F5D502F46012B2F5601FF0D1F3
S315080127F05A6842F00202EBE710B504680122236821
S3150801280002FA01F123EA010323600271002010BDD7
S3150801281030B54379012B4FF0020318D004680371D0
S31508012820236840F6FE75954023EA0505D1E900318E
S315080128300B4393402B4323602368C02101FA02F21C
S3150801284023EA020201232260037100234371184619
S3150801285030BD13B5006800240194019041B901996E
S3150801286008310A440192019A0020136002B010BD92
S3150801287001991431F5E70000036810B5084C0246C2
S31508012880D9B210391820B1FBF0F0205CD06523F4D9
S315080128907F7020F003005F2988BF0430906510BD62
S315080128A06AC6030870B50446FFF78CFC0546002C7A
S315080128B073D0002384F834302268022384F8353033
S315080128C0136823F00103136021680B68D8072FD416
S315080128D00B68334DA0691D40D4E901231343E2680F
S315080128E013432269134362691343E269034313439A
S315080128F0226A1343626A042A43EA050302BFD4E93A
S315080129000B5635432B430B604B69042A23F0070307
S3150801291043EA020333D1A26AE56A13437DB390B948
S31508012920012A21D032F0020229D1EA0127D51EE077
S31508012930FFF748FC401B0528C6D9202363650320F9
S3150801294084F8350070BDB0F5005F14D1032A16D896
S3150801295001A050F822F000BF6F2901082B290108B0
S315080129606F29010869290108B5F1C07F07D14023FC
S3150801297063650120E4E7022AF9D9032AD5D04B6118
S315080129802046FFF779FFE26D3F23934083600020DD
S315080129900123606584F83530D4E70120D2E700BF0A
S315080129A03F8010F030B590F83440012C22D0012434
S315080129B080F8344090F83540012C4FF000054FF06F
S315080129C0020415D180F8354004684565256825F463
S315080129D08025256063608368402B0BBFA260A160D8
S315080129E0E160E260236843F001032360002030BD03
S315080129F080F834500220FAE770B50446866DFFF771
S31508012A00E1FB94F83530022B054606D08023636531
S31508012A10002384F83430012070BD23681A6822F037
S31508012A2016021A605A6922F080025A61226C0AB9A2
S31508012A30A26C1AB11A6822F008021A601A6822F002
S31508012A4001021A6023681B6813F001030AD1E16DBC
S31508012A503F228A40B260012284F8343084F8352056
S31508012A601846D9E7FFF7AEFB401B0528EAD920230C
S31508012A7063650320002384F8343084F83500CBE7F6
S31508012A8090F83530022B03D0802343650120704727
S31508012A900268052380F83530136823F001031360B3
S31508012AA0002070472DE9F84F04460D469046FFF77A
S31508012AB089FB94F83530022B814608D0802363655B
S31508012AC0002384F8343001252846BDE8F88F2368A9
S31508012AD01B68D90503D54FF480736365F3E7E76D82
S31508012AE00DBB2023A66D316803FA07F74FF0080AD4
S31508012AF04FF0010B0F4202D1636DDA0715D5636DED
S31508012B00002B46D0636DDB0743D52046FFF774FFDC
S31508012B10E26D30239340B3600125002384F83430F5
S31508012B2084F83550D0E71023DCE7B8F1FF3F12D01F
S31508012B30B8F1000F09D120236365002384F83430E6
S31508012B40012384F835300325BEE7FFF73BFBA0EBED
S31508012B5009004045EFD8E36D31680AFA03F20A42E3
S31508012B601FBF606D40F001006065B2600BFA03F2A9
S31508012B700A421FBF606D40F002006065B260042220
S31508012B8002FA03F30B421FBF606D10436065B36021
S31508012B90B0E7E26D45B930239340B360012384F869
S31508012BA0345084F835308FE710239340B3600025FD
S31508012BB08AE70000094910B50C6924F440740C61D0
S31508012BC00C6944F440740C610C6944F001040C610D
S31508012BD00260BFF36F8F436010BD00BF003C024027
S31508012BE0074B1A6922F440721A611A6942F4007293
S31508012BF01A611A6942F001021A610160704700BF41
S31508012C00003C0240074B1A6922F440721A611A699C
S31508012C1042F480721A611A6942F001021A6101804E
S31508012C20704700BF003C02401A4BDA68D20606D547
S31508012C301949CA6942F01002CA611022DA60DA68D3
S31508012C40900606D51449CA6942F00802CA612022CB
S31508012C50DA60104BDA68510606D50F49CA6942F09F
S31508012C600402CA614022DA60DA68120606D50A4900
S31508012C70CA6942F00202CA618022DA60054AD3684B
S31508012C809B0706D50449CB6943F02003CB61022390
S31508012C90D3607047003C0240ECF80020064B1A69E5
S31508012CA0002ABFBF054A5A6002F188325A60BABF84
S31508012CB01869C00F00207047003C02402301674590
S31508012CC0034A136943F0004313610020704700BFAC
S31508012CD0003C0240014BD869704700BFECF8002060
S31508012CE0F8B5124B124D00220446DA61FFF76AFA6B
S31508012CF02F460646EB68DA030CD4EB68DB0744BFBC
S31508012D000123EB60F86810F0F20007D0FFF78CFF9B
S31508012D10012003E0611CEDD00CB90320F8BDFFF7D3
S31508012D2051FA801BA042E5D9F7E700BFECF800206D
S31508012D30003C0240F7B5204E01931446327E012A23
S31508012D4007460D4635D001224CF250303276FFF750
S31508012D50C7FFB8B9019BCFB9184B186920F4407061
S31508012D6018611A691A611869E4B240F0010018611C
S31508012D702C704CF25030FFF7B3FF104A136923F059
S31508012D80010313610023337603B0F0BD012F04D18B
S31508012D90A1B22846FFF736FFEBE7022F04D12146F9
S31508012DA02846FFF71DFFE4E722462846FFF702FFFC
S31508012DB0DFE70220E8E700BFECF80020003C02400C
S31508012DC0074B196921F440711961196941F0040128
S31508012DD019611A6942EA002040F480301861704787
S31508012DE0003C024039B101291CD002290CBF4FF41D
S31508012DF000714FF440710D4B1A6922F440721A6141
S31508012E001A69114319611A6922F0F8021A611A69D5
S31508012E1042EAC00040F0020018611A6942F48032A1
S31508012E201A6170474FF48071E5E700BF003C024024
S31508012E30144B1A6891050FD51A6822F400721A60A4
S31508012E401A6842F400621A601A6822F400621A606B
S31508012E501A6842F400721A600A4B1A6852050FD5AD
S31508012E601A6822F480621A601A6842F480521A605B
S31508012E701A6822F480521A601A6842F480621A604B
S31508012E80704700BF003C02402DE9F843234E337ECC
S31508012E90012B054688463FD001234CF25030337644
S31508012EA0FFF71EFF0446A8B94FF0FF33C8F80030F4
S31508012EB02B68012B13D1287CFFF782FF4CF2503087
S31508012EC0FFF70EFF164A136923F00403044613613C
S31508012ED0FFF7AEFF002333762046BDE8F883AF68D7
S31508012EE0DFF83C90D5E902231344BB42F0D9297C8B
S31508012EF03846FFF777FF4CF25030FFF7F1FED9F865
S31508012F00103023F0FA03C9F8103018B1C8F8007068
S31508012F100446DDE70137E5E70224DDE7ECF80020A2
S31508012F20003C0240044A5169014208B502D0506189
S31508012F3001F0F8FC08BD00BF003C01402DE9F34152
S31508012F40044640B30368DD0710D4236898075ED4A6
S31508012F5023681A0700F1A08023685B0700F1BE8089
S31508012F60A069002840F01F8100202BE0A64B9A6833
S31508012F7002F00C02042A07D09A6802F00C02082A09
S31508012F800BD15A68510208D59F4B1B689A03DCD5A9
S31508012F906368002BD9D1012014E06268B2F5803F3D
S31508012FA013D11A6842F480321A60FFF70BF9964E6C
S31508012FB0054633689B03C8D4FFF704F9401B642808
S31508012FC0F7D9032002B0BDE8F0818F4DB2F5A02FE5
S31508012FD02B6807D143F480232B602B6843F4803395
S31508012FE02B60E2E723F480332B602B6823F48023DC
S31508012FF02B60002AD9D1FFF7E5F806462B689F030F
S31508013000A3D5FFF7DFF8801B6428F7D9D9E77E4BEC
S315080130109A6812F00C0F07D09A6802F00C02082A77
S3150801302011D15B685E020ED4774B1A68950702D5F3
S31508013030E268012AAFD11A68216922F0F80242EA48
S31508013040C1021A6084E7E268704BB2B101221A60C4
S31508013050FFF7B8F86C4D06462B68980707D52B6815
S31508013060226923F0F80343EAC2032B6070E7FFF7EE
S31508013070A9F8801B0228EFD9A3E71A60FFF7A2F87F
S31508013080614E0546336899077FF562AFFFF79AF8EF
S31508013090401B0228F6D994E762695D4B7AB1012291
S315080130A01A60FFF78FF8584E0546736F9F073FF56D
S315080130B053AFFFF787F8401B0228F6D981E71A6054
S315080130C0FFF780F8504E0546736F98077FF544AFB2
S315080130D0FFF778F8401B0228F6D972E74A4B1A6CB3
S315080130E012F0805228D101921A6C42F080521A6469
S315080130F01B6C03F080530193019B0127454D2B68F7
S31508013100D9051BD5A368404D012B27D12B6F43F059
S3150801311001032B67FFF756F83B4E054641F28838FF
S31508013120336F9B0739D5002F3FF41AAF364A136C14
S3150801313023F08053136413E70027DFE72B6843F472
S3150801314080732B60FFF73EF806462B68DA05D9D45B
S31508013150FFF738F8801B0228F7D932E7052B04D187
S315080131602B6F43F004032B67D0E72A6F22F0010285
S315080131702A672A6F22F004022A67002BCAD1FFF7B1
S3150801318021F841F2883806462B6F9807CBD5FFF709
S3150801319019F8801B4045F7D913E7FFF713F8401BC9
S315080131A04045BDD90DE7184DAB6803F00C03082B54
S315080131B047D0194E00230228336035D1FFF702F8AC
S315080131C007462B68990129D4D4E907321343626A61
S315080131D043EA8213E26A43EA0263A26A5208013A9F
S315080131E043EA02436B6001233360FEF7EBFF064DAA
S315080131F004462B689A013FF5B7AEFEF7E3FF001BBD
S315080132000228F6D9DDE600BF003802400000474231
S31508013210800E47420070004060004742FEF7D2FF29
S31508013220C01B0228CDD9CCE6FEF7CCFF04462B6895
S315080132309B017FF599AEFEF7C5FF001B0228F6D95B
S31508013240BFE601283FF4BEAEAB68E26903F480012C
S3150801325091427FF4A0AE216A03F03F028A427FF4CD
S315080132609AAE616A47F6C0721A408A427FF493AEF3
S31508013270A16A03F440328A427FF48DAEE26A03F012
S31508013280706393423FF470AE85E600BF134908B5F3
S315080132908B6803F00C03042B1CD0082B1CD14A683D
S315080132A04B68496813F4800314BF0D480D48C1F3F0
S315080132B0881118BF002302F03F02A1FB0001FDF7A8
S315080132C06BFC064B5B68C3F3014301335B00B0FB40
S315080132D0F3F008BD0248FCE70248FAE70038024065
S315080132E000127A000024F4002DE9F0410D46044647
S315080132F010B90120BDE8F081444B1A6802F00F02AB
S315080133008A4228D3226897072DD4D00741D43F4B48
S315080133101A6802F00F02AA4266D8226851076CD4CD
S31508013320130707D53A4A2169936823F4604343EAA8
S31508013330C1039360FFF7AAFF354B364A9B68C3F36F
S315080133400313D35CD840344B1860344B1868FEF726
S31508013350EFFE0020CEE7CAB21A701B6803F00F030E
S315080133608B42C6D1CEE72A4B12F0040F1EBF9968CD
S3150801337041F4E0519960160742BF996841F46041EA
S3150801338099602349A0688B6823F0F00303438B6097
S31508013390BBE762681E4B012A1CD11B6813F4003F68
S315080133A0A7D01B4EB36823F003031343B360FEF79C
S315080133B009FF41F288380746B368626803F00C03CF
S315080133C0B3EB820FA3D0FEF7FDFEC01B4045F3D930
S315080133D003208FE7911E01291B6802D813F0007F8D
S315080133E0DEE713F0020FDBE7EAB21A701B6803F097
S315080133F00F03AB427FF47DAF8FE70549E0688B6821
S3150801340023F4E05303438B608AE700BF003C024084
S315080134100038024018C7030844000020180000209D
S31508013420044B054A9B68C3F38223D35C034A10689D
S31508013430D84070470038024028C7030844000020D6
S31508013440044B054A9B68C3F34233D35C034A1068AD
S31508013450D84070470038024028C7030844000020B6
S315080134600F2303600B4B9A6802F0030242609A68C5
S3150801347002F0F00282609A6802F4E052C2609B6828
S31508013480DB0803F4E0530361034B1B6803F00F03E6
S315080134900B60704700380240003C024003689A6896
S315080134A0D20410B504460AD5DB68D90507D501F05B
S315080134B0E7FB2268D368DBB263F4C073D360236881
S315080134C09A6892040BD5DB689B0508D5204600F05F
S315080134D00FF82268D368DBB263F42073D360034B19
S315080134E04FF400325A610123637710BD003C014055
S315080134F07047704710B50446002836D0002383620A
S3150801350090F8513003F0FF021BB980F85020FFF7FD
S31508013510F0FF2168A269022384F851300B6823F071
S3150801352040030B60D4E901300343E0680343206993
S31508013530034360690343E0690343206A0343A06ABE
S31508013540034302F4007003430B60120C636A02F032
S3150801355004021A434A60CB6923F40063CB61002055
S315080135600123606584F8513010BD0120FCE77047DE
S3150801357070B50E461546044610B390F8493003F067
S31508013580FF021BB980F84820FFF7F1FF04F1080193
S31508013590206800F037FEA2682068314600F05EFE1A
S315080135A0236BA2686068294600F076FEA168226846
S315080135B052F8213043F0010342F82130002070BD52
S315080135C00120FCE7036A23F001030362036A70B56D
S315080135D0446882690D6822F073022A438D6823F0D4
S315080135E002032B430E4DA84202D00E4EB04210D113
S315080135F0CE6823F008033343A84223F0040302D01C
S31508013600084DA84205D1D1E9055624F4407435433D
S315080136102C43446082614A684263036270BD00BFFD
S315080136200000014000040140036A23F48073036229
S31508013630036A70B54468C2690D6822F073022A43A9
S315080136408D6823F4007343EA0523114DA84203D07C
S3150801365005F58065A84214D1CD6823F4006343EAD1
S3150801366005230B4DA84223F4806303D005F5806535
S31508013670A84206D1D1E9055624F44054354344EA13
S3150801368005144460C2614A68C263036270BD00BF23
S3150801369000000140036A23F480530362036A30B5CC
S315080136A04468C2690D6822F4E64242EA05228D6839
S315080136B023F4005343EA0533084DA84203D005F520
S315080136C08065A84204D14D6924F4804444EA8514EE
S315080136D04460C2614A680264036230BD0000014069
S315080136E0022380F83D3003689A6802F00702062A29
S315080136F01EBF1A6842F001021A60012380F83D30A4
S315080137000020704790F83C30012B4FF0020309D096
S3150801371080F83D3003685961012380F83D30002364
S3150801372080F83C30184670477047704703681A6935
S31508013730910710B504460ED5DA6892070BD56FF0D6
S3150801374002021A61012202779B699B0777D0FEF76D
S315080137508DF90023237723681A69500710D5DA688B
S3150801376051070DD56FF004021A61022222779B696F
S3150801377013F4407F204668D0FEF778F900232377B3
S3150801378023681A6912070FD5DA6810070CD56FF086
S3150801379008021A6104222277DB69990720465AD062
S315080137A0FEF764F90023237723681A69D20610D530
S315080137B0DA68D0060DD56FF010021A610822227751
S315080137C0DB6913F4407F20464BD0FEF74FF90023FF
S315080137D0237723681A69D10708D5DA68D20705D588
S315080137E06FF001021A612046FEF714F923681A6977
S315080137F0100608D5DA68110605D56FF080021A6138
S31508013800204600F0A4FA23681A69520608D5DA6830
S31508013810500605D56FF040021A612046FFF785FF6D
S3150801382023681A69910622D5DA6892061FD56FF0C0
S31508013830200220461A61BDE8104000F087BAFEF75B
S3150801384013F92046FFF770FF83E7FEF70DF92046C7
S31508013850FFF76AFF92E7FEF707F92046FFF764FFCD
S31508013860A0E7FEF701F92046FFF75EFFAFE710BDB7
S31508013870304A0368904212D0B0F1804F0FD0A2F5BA
S315080138807C4290420BD002F58062904207D002F545
S315080138908062904203D002F57842904219D14A6873
S315080138A023F070031343234A904229D0B0F1804F85
S315080138B026D0A2F57C42904222D002F5806290423F
S315080138C01ED002F5806290421AD002F578429042E3
S315080138D016D0194A904213D002F5806290420FD051
S315080138E002F5806290420BD0A2F59832904207D039
S315080138F002F58062904203D002F58062904203D1BC
S31508013900CA6823F4407313434A6923F080031343B7
S3150801391003608B68C3620B688362064B984203D0C7
S3150801392003F58063984201D10B690363012343615F
S31508013930704700BF000001400040014010B5044631
S31508013940A0B190F83D3003F0FF021BB980F83C2086
S3150801395001F024FC0223206884F83D30211DFFF77D
S3150801396087FF012384F83D30002010BD0120FCE7C4
S31508013970036A23F010030362036A70B54468826917
S315080139800D6822F4E64242EA05228D6823F02003F7
S3150801399043EA0513104DA84203D005F58065A842F0
S315080139A014D1CD6823F0800343EA05130A4DA842D2
S315080139B023F0400303D005F58065A84206D1D1E975
S315080139C0055624F44064354344EA8504446082611B
S315080139D04A688263036270BD0000014010B590F821
S315080139E03C30012B04464FF0020010D00123082A6F
S315080139F084F83C3084F83D0018D009D872B1042AFD
S31508013A0010D00123002084F83D3084F83C0010BD15
S31508013A100C2AF6D12068FFF73DFEF2E72068FFF78A
S31508013A20D1FDEEE72068FFF7A3FFEAE72068FFF775
S31508013A30FBFDE6E738B590F83C30012B04464FF01C
S31508013A40020010D00123082A84F83C3084F83D008E
S31508013A503FD009D8DAB1042A2AD00123002084F8F4
S31508013A603D3084F83C0038BD0C2AF6D12068FFF7B2
S31508013A7011FE23680969DA6942F40062DA61DA69D2
S31508013A8022F48062DA61DA6942EA012230E02068CA
S31508013A90FFF798FD236809699A6942F008029A6155
S31508013AA09A6922F004029A619A690A439A61D4E7EB
S31508013AB02068FFF75DFF236809699A6942F4006285
S31508013AC09A619A6922F480629A619A6942EA0122A4
S31508013AD0ECE72068FFF7A8FD23680969DA6942F06F
S31508013AE00802DA61DA6922F00402DA61DA690A435C
S31508013AF0DA61B2E770B5046A1A4E24F00104046269
S31508013B00B0428469056A29D0B0F1804F26D0A6F55E
S31508013B107C46B04222D006F58066B0421ED006F534
S31508013B208066B0421AD006F57846B04216D006F538
S31508013B307056B04212D0A6F59436B0420ED044F073
S31508013B4001021B01DBB222F0F0021A4301F00A015D
S31508013B5025F00A0319438261016270BD24F003044A
S31508013B602243EEE700000140F8B590F83C30012BFE
S31508013B7004460E4615464FF002001AD0012384F872
S31508013B803D0084F83C30D1E900122068F3688DB90C
S31508013B90FFF7B0FF2368B1689A6922F00C029A61AF
S31508013BA09A690A439A610123002084F83D3084F812
S31508013BB03C00F8BD042DB66822D1056A25F010052A
S31508013BC005628769D0F820E027F4407C1D034CEA9A
S31508013BD0022C09012CF4704CADB22EF0A00E01F0A6
S31508013BE0A00145EA0C0541EA0E0185610162836976
S31508013BF023F440638361836943EA06268661D2E733
S31508013C00082D056A1CD125F480750562C769056A00
S31508013C1027F0030717431B010902DBB227F0F00758
S31508013C2025F4206501F420611F432943C761016218
S31508013C30C36923F00C03C361C3691E43C661B2E7B6
S31508013C4025F480550562C569076A25F4407545EA74
S31508013C5002251B03090325F470459BB227F4204767
S31508013C6001F420412B433943C3610162C36923F43B
S31508013C704063C361C36943EA0626DFE7036A01F0C5
S31508013C801F0110B501248C4023EA04030362036A69
S31508013C908A401A43026210BD10B504460122006823
S31508013CA0FFF7ECFF23680B4A934203D002F58062C3
S31508013CB0934203D15A6C42F400425A649A6802F05C
S31508013CC00702062A1EBF1A6842F001021A6000207E
S31508013CD010BD00BF00000140FFF7DEBF10B5044666
S31508013CE001220068FFF7CAFF23689A6802F00702F3
S31508013CF0062A1EBF1A6842F001021A60002010BD8A
S31508013D00036A01F01F0110B504248C4023EA040359
S31508013D100362036A8A401A43026210BD10B504465B
S31508013D2004220068FFF7ECFF23685A6C42F400424C
S31508013D305A649A6802F00702062A1EBF1A6842F0F8
S31508013D4001021A60002010BDFFF7E8BF70477047EF
S31508013D500368DA6822F49072DA605A6922F001027D
S31508013D605A61202380F83A307047000038B5036855
S31508013D70C1681A69044622F440520A431A61256940
S31508013D80A268D968C0692A43656921F416412A439C
S31508013D9021F00C0102430A43DA605A69A16922F447
S31508013DA040720A43B0F5004F5A61254A28D1934219
S31508013DB003D002F5806293421FD1FFF741FB626887
S31508013DC0002392184FF019015B41A0FB0101FCF792
S31508013DD0E3FE6421B0FBF1F501FB1503DB00323389
S31508013DE0B3FBF1F303F007025B00216802EB05124E
S31508013DF003F4F87313448B6038BDFFF711FBDEE754
S31508013E00934202D00F4A934217D1FFF719FB636811
S31508013E1019219A00A0FB01019B0FFCF7BDFE642244
S31508013E20B0FBF2F102FB110324681B013233B3FB29
S31508013E30F2F303EB0113A360DEE7FFF7F1FAE6E716
S31508013E400010014000140140704710B5044640B304
S31508013E5090F8393003F0FF021BB980F83820FFF7D4
S31508013E60F3FF2268242384F83930D36823F40053F6
S31508013E70D3602046FFF77AFF23681A6922F4904235
S31508013E801A615A6922F02A025A61DA6842F4005222
S31508013E90DA6000202023E06384F8393084F83A3068
S31508013EA010BD0120FCE710B5044660B390F839301F
S31508013EB003F0FF021BB980F83820FFF7C5FF226817
S31508013EC0242384F83930D36823F40053D360204679
S31508013ED0FFF74CFF23681A6922F490421A615A695E
S31508013EE022F022025A615A6942F008025A61DA68D6
S31508013EF042F40052DA6000202023E06384F8393066
S31508013F0084F83A3010BD0120FCE7704710B5044625
S31508013F1090B10268242380F83930D36823F400531A
S31508013F20D360FFF7F2FF0020E06384F8380084F8D5
S31508013F30390084F83A0010BD0120FCE790F83930C1
S31508013F40202B18D1A9B1A2B190F83830012B12D083
S31508013F50C28401628284016800232122C36380F836
S31508013F60383080F83920CA6842F08002CA6018469B
S31508013F707047012070470220704790F83A30202B8D
S31508013F8020D1E9B1E2B190F83830012B1AD0C285B7
S31508013F90828500232222C36380F83A20026880F8CA
S31508013FA038308162D16841F48071D160516941F03C
S31508013FB001015161D16841F02001D160184670476D
S31508013FC0012070470220704710B590F83A30222B2D
S31508013FD033D181680469836A0268B1F5805F23D1A8
S31508013FE05268ECB9C2F3080223F8022B8362C48D26
S31508013FF0013CA4B2C4858CB90368DA6822F02002B0
S31508014000DA60DA6822F48072DA605A6922F001020B
S315080140105A61202380F83A3001F05CFB00200DE05C
S31508014020D2B223F8012BE1E7591C526881620CB917
S315080140301A70DCE702F07F02FAE7022010BD0000E1
S3150801404003681A68D96870B516075D69044607D109
S3150801405096065CD58D065AD5BDE87040FFF7B4BF04
S3150801406005F0010001F49075054350D0D60705D532
S31508014070CD0542BFE36B43F00103E363530704D560
S3150801408018B1E36B43F00203E363960704D518B14D
S31508014090E36B43F00403E363150707D501F0200337
S315080140A003431EBFE36B43F00803E363E36B4BB3C0
S315080140B0900604D5890602D52046FFF785FF2368B1
S315080140C05B69E56B03F0400305F008051D432046CF
S315080140D019D0FFF73DFE23685A6952060FD55A696A
S315080140E0606B22F040025A6148B1264B0365FEF720
S315080140F0C7FC38B1606BBDE87040036D18472046B0
S3150801410001F0FEFA70BD01F0FBFAE563FAE716065F
S3150801411028D50D0626D594F83920212AF2D1A16889
S31508014120226AB1F5805F18D11188C1F30801596077
S31508014130216981B902322262E28C013A92B2E284A1
S31508014140002ADFD1DA6822F08002DA60DA6842F002
S315080141504002DA60D6E70132EDE7511C2162127896
S315080141605A60E9E75006CDD54A06CBD5DA6822F07A
S315080141704002DA60202384F83930204601F0ADFA8E
S31508014180C0E700BF8941010808B5806B0023C385D4
S31508014190C38401F0B5FA08BD90F83830012B11D067
S315080141A00268242380F83930D36823F00C0343F0DE
S315080141B00803D360202380F83930002380F838308B
S315080141C0184670470220704790F83830012B11D0F5
S315080141D00268242380F83930D36823F00C0343F0AE
S315080141E00403D360202380F83930002380F838305F
S315080141F0184670470220704790F8392090F83A001F
S315080142001043704770B50C68134E50F82430D1E945
S3150801421001251E4045EA0203CA6813430A69134386
S315080142204A6913438A691343CA6913430A6A1343DA
S315080142304A6A13438A6A1343CA6A1343CA6B134306
S315080142400A6B13433343082D08BF43F0400340F874
S315080142502430002070BD00BF8000F0FF0B6810B548
S315080142608C6923434C6843EA04138C6843EA0423A4
S31508014270CC6800EB820243EA04430C694969506839
S31508014280013C43EA0453023900F0404043EA016322
S3150801429003435360002010BDB3F5804F30B514D1E8
S315080142A050F822300A4C8D691C400B682B434D6827
S315080142B043EA05138D68C96843EA052343EA0143BE
S315080142C0234340F82230002030BD6FF07043F8E7F1
S315080142D00000F0CF8AB0002308287CD8DFE800F078
S315080142E00513202D3A4754616E0001933B4B3C4818
S315080142F01A6B42F001021A631B6B03F00103019367
S31508014300019B0AB070470293344B36481A6B42F048
S3150801431002021A631B6B03F002030293029BF0E786
S3150801432003932E4B30481A6B42F004021A631B6B37
S3150801433003F004030393039BE3E70493274B2B48FA
S315080143401A6B42F008021A631B6B03F00803049305
S31508014350049BD6E70593214B25481A6B42F01002B8
S315080143601A631B6B03F010030593059BC9E70693B4
S315080143701A4B20481A6B42F020021A631B6B03F092
S3150801438020030693069BBCE70793144B1A481A6B3E
S3150801439042F040021A631B6B03F040030793079B25
S315080143A0AFE708930D4B15481A6B42F080021A6362
S315080143B01B6B03F080030893089BA2E70993074B3D
S315080143C00F481A6B42F480721A631B6B03F48073ED
S315080143D00993099B95E7002093E700BF003802403F
S315080143E0000002400004024000080240000C02409E
S315080143F0001002400014024000180240001C02404E
S315080144000020024008B5064900F02CFCC0F3C43070
S31508014410831E022B9ABF80000438002008BD00BF06
S3150801442044BF030802680B4B9A4282B00BD10023A2
S315080144300193094B1A6C42F000521A641B6C03F083
S3150801444000530193019B054B0549B3F9000002B0DE
S3150801445000F0C4BB00740040003802404000002050
S3150801446020BF0308F0B589B004460E461746002159
S31508014470142203A824F0F8FE00231A492046CDE9A0
S31508014480013300F0CBFB039050B31649204600F0E8
S31508014490E9FBC0F3C430022814BF00251025012FFB
S315080144A00BD033460022294603A8FEF7D2F9B8B93C
S315080144B0294603A8FEF773F912E003A8FEF761F986
S315080144C070B9094B03A81C80FEF748F940B9CDE934
S315080144D001002A4601A903A8FEF79AF90028E0D0A7
S315080144E009B0F0BD20BF0308400000200268094B4F
S315080144F09A420DD103F5E2331A6A42F000521A6262
S315080145001A6A22F000521A621A6C22F000521A64D0
S31508014510704700BF0074004010B50C4986B00446C8
S3150801452000F07CFB019078B10849204600F09AFB1F
S31508014530C0F3C43002280CBF1021002101A8FEF7E0
S315080145405BF901A8FEF71DF906B010BD20BF0308E7
S3150801455003681D4A934284B014D1002301931B4B6F
S315080145605A6C42F480725A645B6C03F4807301934B
S31508014570019B174BB3F90000C30523D4154904B0B1
S3150801458000F02CBB144A93420CD1002302930F4B23
S315080145905A6C42F400725A645B6C03F4007302931A
S315080145A0029BE6E70D4A9342E3D100230393074BA7
S315080145B05A6C42F480625A645B6C03F48063039319
S315080145C0039BD6E704B0704700200140003802403B
S315080145D04000002054BE030800210140002201408A
S315080145E0114B12495A6A42F480725A625A6A22F483
S315080145F080725A6202688A4204D15A6C22F4807225
S315080146005A6470470A498A4207D15A6C22F40072E1
S315080146105A645A6C22F40072F2E706498A42F0D1CA
S315080146205A6C22F48062EBE7003802400020014010
S315080146300021014000220140F0B599B00746482201
S315080146400D4606A8002124F00FFE0021102202A81B
S3150801465024F00AFE0024F905ADF80640BBB20DD5D3
S31508014660B7F5827F0ADA414A06926FF480721344DB
S31508014670022B01D8A7F1F104072610E03C49384678
S3150801468000F0CCFA3A490690384600F0EBFAC0F346
S31508014690C434631E112B4FF0010688BF0024069B04
S315080146A013B9002019B0F0BD4FF48033082D0793D4
S315080146B054D00A2D55D0062D56D14FF040732D4AA8
S315080146C008930023CDE90933CDE910238DF830305D
S315080146D08DF838300F938DF84830169314938DF86A
S315080146E05430254B012506A80B950D951F80FDF71E
S315080146F06FFD0028D5D1CDE9046002A906A8CDE948
S315080147000245FDF707FF0028CBD106A8FDF720FED5
S315080147100028C6D10A2106A8FDF7A9FE0028C0D19E
S3150801472006A8FDF789FF830505D506A8FDF7EEFE60
S3150801473080B2ADF8060006A8FDF77EFE0028B0D1C6
S3150801474006A8FDF7EBFD0028ABD10C4A536823F404
S3150801475040035360BDF8060080B2A3E74FF000732B
S31508014760ADE74FF08073AAE70023A8E700200140D0
S3150801477054BE03080100000F400000200023014039
S315080147802DE9F34789462549254C98461746064695
S3150801479000F044FAFCF78AFE54F8203005467BB946
S315080147A01E49304600F03AFA0190A820FDF799FA19
S315080147B001998246FCF7FAFE54F82530C3F800A0A1
S315080147C054F8253015491C68304600F04BFAC0F3F9
S315080147D0C43529462046FCF727FE0528824605D01A
S315080147E03346052229462046FCF774FD022249462E
S315080147F02046FCF765FF43463A4629462046FCF71C
S31508014800B7FFBAF1050F05D0204602B0BDE8F0475B
S31508014810FCF73ABD02B0BDE8F08700BF44BF030804
S31508014820E004002073B51549154C064600F0F6F963
S31508014830FCF73CFE54F82030054673B90F4930465B
S3150801484000F0ECF90190A820FDF74BFA019906460C
S31508014850FCF7ACFE54F825301E6054F825301C6868
S315080148604CB12046FCF782FEA821204602B0BDE8DD
S315080148707040FDF738BA02B070BD00BF44BF0308E7
S31508014880E004002037B50D4D2B68FDF79BFC6C68DD
S31508014890AB680134E31A01932B68DB0304D5FDF7F2
S315080148A091FCAB68E31A0193019B4FF47A72534367
S315080148B0B3FBF4F302FB003003B030BD10E000E0B7
S315080148C0FDF780BC704708B5FDF770FCFDF742FFA0
S315080148D0FFF7F8FF08BD00000B4BDA68D2015EBF8F
S315080148E0DA6842F08072DA60084B00225A601A6868
S315080148F042F001021A6000BF00BF00BF5868B0FA53
S3150801490080F04009704700BFF0ED00E0001000E0BC
S3150801491008B5FFF7E1FFFDF72FFCBDE80840FCF7F6
S315080149205DBA00000023012803F1010202D0400804
S315080149301346F8E71421DBB24B43044A181D104409
S31508014940816811B11A441369184770473C0500205C
S315080149500120FEF7E7BA0220FEF7E4BA0420FEF7C3
S31508014960E1BA0820FEF7DEBA1020FEF7DBBA38B541
S3150801497005242025A8B2FEF7D5FA013C4FEA4505DC
S31508014980F8D138BD38B506244FF48065A8B2FEF7CC
S31508014990C9FA013C4FEA4505F8D138BD204B072134
S315080149A01975082183F82810092183F83C100A2172
S315080149B0062283F8501017211A7083F86410002212
S315080149C083F8781083F88C1083F8A01083F8B41054
S315080149D02821DA601A625A639A64DA651A67C3F893
S315080149E08420C3F89820C3F8AC20C3F8C02083F804
S315080149F0C810C3F8D42083F8DC10C3F8E82083F87C
S31508014A00F010C3F8FC2083F80411C3F8102183F8C9
S31508014A101811C3F8242183F82C11C3F838217047DB
S31508014A203C05002038B5054CA4F5A075143C201D9D
S31508014A30FCF776FBAC42F9D138BD00BF7C060020F5
S31508014A4030B5436891FAA1F4B4FA84F50124AC406F
S31508014A5023EA040391FAA1F1B1FA81F18A401343D9
S31508014A60436030BD30B5C46891FAA1F3B3FA83F354
S31508014A7003255B0005FA03F324EA030391FAA1F17E
S31508014A80B1FA81F149008A401343C36030BD431C22
S31508014A9004D00C3131F90C3C5A1C01D10020704765
S31508014AA0834201F10C01F5D10120704700F00F0294
S31508014AB0484B2DE9F041C0F303141FFA80F8013081
S31508014AC053F822500E4601F0070703D14248482100
S31508014AD000F0E8F82046FFF7FDFB8368044695FADF
S31508014AE0A5F2B2FA82F20321520001FA02F223EA8E
S31508014AF0020195FAA5F3B3FA83F35A000323934007
S31508014B000B438360032F35D8DFE807F01D1D021D0F
S31508014B1018F0080FC6F3062217D0406A2B0A93FA33
S31508014B20A3F1B1FA81F14FF00F0C89000CFA01F1EA
S31508014B3020EA010193FAA3F3B3FA83F39B0002FA7D
S31508014B4003F30B4363623B4619E0036A95FAA5F141
S31508014B50B1FA81F10F20890000FA01F123EA010176
S31508014B6095FAA5F3B3FA83F39B0002FA03F30B4311
S31508014B702362E8E718488D2100F094F8002321689C
S31508014B8095FAA5F2B2FA82F20320520000FA02F26D
S31508014B9021EA020195FAA5F2B2FA82F2520093408D
S31508014BA0013F0B43012F236007D816F0080218BFEF
S31508014BB0012229462046FFF743FFC6F30112012ABF
S31508014BC002D0022A18BF002229462046BDE8F04134
S31508014BD0FFF748BFD8C6030872C60308431C06D1A7
S31508014BE07047834202D18968FFF760BF0C31B1F97A
S31508014BF000305A1CF5D10248B92100F053B800BF5C
S31508014C0072C60308B1F900305A1C01D10020704759
S31508014C10834201D1486870470C31F3E7431C01D040
S31508014C20FFF7F0BF002070474B6813B94FF0FF300C
S31508014C307047834202D1B1F9000070470C31F3E79E
S31508014C4008B1FFF7F1BF4FF0FF307047B1F90030F7
S31508014C505A1C01D118467047834201D188687047AA
S31508014C600C31F3E7431C01D0FFF7F0BF70478842C8
S31508014C7004D018B100290CBF014600210846704727
S31508014C80034B1B6813B1034A10681847704700BFE6
S31508014C907C060020A00600200148FEF7FFBB00BFE6
S31508014CA080060020FEE700000E49D1F8883043F45B
S31508014CB07003C1F888300C4B1A68002042F00102D3
S31508014CC01A6098601A6822F0847222F480321A6097
S31508014CD0064A5A601A6822F480221A60D860044B80
S31508014CE08B60704700ED00E0003802401030002468
S31508014CF0000001080438704703686D4A93428EB074
S31508014D002AD1002200926B4A516C41F0010151648B
S31508014D10526C02F001020092009A674A93425DD1F1
S31508014D2000220592634A116C41F010011164126C5C
S31508014D3002F010020592059A604A93425DD100235A
S31508014D400A935C4B5A6C42F480225A645B6C03F4F6
S31508014D5080230A930A9B26E0B3F1804F25D0584A4F
S31508014D6093422FD0574A934257D0574A9342D4D1A8
S31508014D70002204924F4A116C41F008011164126C29
S31508014D8002F008020492049A504A9342D4D10023AD
S31508014D900993484B5A6C42F400325A645B6C03F42B
S31508014DA000330993099B0EB0704700220192414ACC
S31508014DB0116C41F001011164126C02F001020192B9
S31508014DC0019AAAE7002202923A4A116C41F00201BD
S31508014DD01164126C02F002020292029A3C4A934250
S31508014DE027D100220692334A116C41F02001116441
S31508014DF0126C02F020020692069A364A934246D16E
S31508014E0000230B932B4B1A6C42F040021A641B6C5D
S31508014E1003F040030B930B9BC5E700220392254A37
S31508014E20116C41F004011164126C02F00402039240
S31508014E30039A294A93421ED0284A9342A4D10022B2
S31508014E4008921C4A516C41F480315164526C02F447
S31508014E5080320892089A224A9342A4D100230D93DC
S31508014E60144B1A6C42F480721A641B6C03F4807337
S31508014E700D930D9B97E7002207920E4A516C41F05C
S31508014E8002015164526C02F002020792079A154A0E
S31508014E909342E0D100230C93064B1A6C42F0800230
S31508014EA01A641B6C03F080030C930C9B7BE700BF11
S31508014EB0000001400038024000100040004801404F
S31508014EC00004004000080040000C00400044014076
S31508014ED00014004000180040000401400040014051
S31508014EE000200040001C004003683A4A934214D14E
S31508014EF039494A6C22F001024A64384A934231D14F
S31508014F0035490A6C22F010020A64354A934231D1B6
S31508014F10314A536C23F4802317E0B3F1804F16D03E
S31508014F20304A934219D0304A93422CD02F4A9342A1
S31508014F30E3D129490A6C22F008020A642C4A9342F1
S31508014F40E3D1254A536C23F400335364704722494D
S31508014F500A6C22F001020A64CFE71F490A6C22F0A3
S31508014F6002020A64234A934212D11B490A6C22F0AF
S31508014F7020020A64204A93421ED1174A136C23F071
S31508014F8040031364704714490A6C22F004020A6448
S31508014F901A4A93420BD01A4A9342CFD10E494A6C08
S31508014FA022F480324A64174A93420DD070470A495F
S31508014FB04A6C22F002024A64134A9342F3D1064A22
S31508014FC0136C23F08003DCE7034A136C23F4807324
S31508014FD0D7E700BF0000014000380240001000403A
S31508014FE0004801400004004000080040000C004051
S31508014FF0004401400014004000180040000401402C
S315080150000040014000200040001C004008B5431C38
S31508015010014616D0294B98423ED01ED8A3F54063C7
S3150801502098423BD010D8A3F50063984238D003F5CF
S315080150308063984236D0B0F1804F35D02048FFF7CB
S3150801504031FE6FF00D0008BD1E4B98422ED003F5B8
S3150801505080639842F2D13720F5E71B4B98420CD072
S315080150600DD8A3F56443984222D003F560439842CC
S3150801507020D0A3F564439842E0D12C20E3E7134BF3
S31508015080984217D003F58063984215D0A3F50063BB
S315080150909842D3D11820D6E72B20D4E73220D2E77D
S315080150A01D20D0E71E20CEE71C20CCE73620CAE714
S315080150B02D20C8E71920C6E71A20C4E700180040C2
S315080150C030C70308001000400004014000440140B5
S315080150D008B5431C014616D02B4B98423ED022D820
S315080150E0A3F5805398423BD010D8A3F500639842A4
S315080150F038D003F58063984236D0B0F1804F35D069
S315080151002248FFF7CFFD6FF00D0008BD204B9842EE
S315080151102ED003F5806398422CD0A3F500639842FC
S31508015120EED13620F1E71B4B984225D00DD8A3F5D1
S315080151308043984222D003F58063984220D0A3F594
S3150801514064439842DCD12D20DFE7134B984219D0EE
S3150801515003F580639842D3D11A20D6E72C20D4E7E9
S315080151603220D2E71D20D0E71E20CEE71C20CCE74F
S315080151703720CAE72B20C8E71820C6E71B20C4E753
S315080151802E20C2E71920C0E7001C004030C70308DB
S3150801519000140040004001400044014038B504466F
S315080151A0FFF7AAFD0068FFF731FFD4E91012FDF7F2
S315080151B057FA2068FFF72AFFFDF784FA2068FFF7F8
S315080151C087FF05462068FFF721FF85420DD0206835
S315080151D0FFF77EFFD4E91012FDF742FA2068FFF7C0
S315080151E077FFBDE83840FDF76DBA38BD08B5431CF1
S315080151F0014633D01C4B984234D020D8A3F57043CE
S3150801520098420AD00ED8A3F50063984205D006D86D
S3150801521020F48063B3F1804F1DD101201FE0134BA9
S315080152209942F9E7124B9842F7D006D8A3F50063DD
S315080152309842F2D003F58063F2E70E4BF0E70E4B86
S3150801524098420FD00CD8A3F5804398420AD003F5AB
S315080152507053994206D00948FFF724FD002008BD7E
S31508015260074BF6E70220FAE700000140000C004070
S31508015270001C0040002000400044014048C70308C4
S31508015280004801402DE9F04786B004468846B0F942
S315080152904C007849DDF8389017461E46FFF7BEFCE4
S315080152A075498246B4F94E00FFF7B8FC0546BAF1CE
S315080152B0000F00F0DB80B4F94E30013302D000282C
S315080152C000F0D48029465046FFF7D1FC206000281B
S315080152D000F0CC80694B98423BD103F594335A6A66
S315080152E042F010025A625A6A22F010025A620022E9
S315080152F000925A6C42F010025A645B6C03F0100378
S315080153000093009B2523A4F850305A49B4F94C0060
S31508015310FFF764FC25B15849B4F94E00FFF75EFC66
S3150801532094F85120564B6661201D43F822002368E4
S315080153300C22C4E901380023C4E90379C4E9062328
S315080153402362002D40F08D8006B0BDE8F047FEF7D8
S31508015350AABD4C4B984217D103F5FA331A6A42F49F
S3150801536000321A621A6A22F400321A620022019283
S315080153701A6C42F400321A641B6C03F4003301936D
S31508015380019B4FF49373BEE73F4B984217D103F540
S31508015390F8331A6A42F480221A621A6A22F48022BF
S315080153A01A62002202921A6C42F480221A641B6C59
S315080153B003F480230293029B40F22723A3E7334B8E
S315080153C0984217D103F5F6331A6A42F400221A6293
S315080153D01A6A22F400221A62002203921A6C42F413
S315080153E000221A641B6C03F400230393039B4FF4F6
S315080153F04D7388E7264B984217D103F5F4331A6A99
S3150801540042F480121A621A6A22F480121A6200227F
S3150801541004921A6C42F480121A641B6C03F480130A
S315080154200493049B40F235436DE71A4B98427FF487
S315080154306CAF03F592335A6A42F020025A625A6AED
S3150801544022F020025A62002205925A6C42F020028A
S315080154505A645B6C03F020030593059B40F247539E
S3150801546051E706B0BDE8F047FEF7EFBC06B0BDE868
S31508015470F08700BFD4C2030850C2030800100140D8
S31508015480A40600200044004000480040004C0040AB
S31508015490005000400014014008B1FFF7F3BE704701
S315080154A010B590F851200446052A1FD8DFE802F006
S315080154B003112E3B48552F4B596A41F01001596289
S315080154C0596A21F010015962596C21F01001596489
S315080154D00CE0284B196A41F400311962196A21F462
S315080154E000311962196C21F400311964224B53F801
S315080154F02200FEF70BFD214B94F8512093F8511029
