:020000040800F2
:20000000F06D002029020008E9170008A9100008E5170008850400085D3900080000000034
:200020000000000000000000000000002D330008A10900080000000085180008993500082B
:20004000430200084302000843020008430200084302000843020008430200084302000838
:20006000430200084302000843020008430200084302000843020008430200084302000818
:200080004302000843020008430200084302000843020008430200084302000843020008F8
:2000A0004302000843020008430200084302000843020008430200084302000843020008D8
:2000C0004302000843020008430200084302000843020008430200084302000843020008B8
:2000E000430200084302000843020008430200084302000843020008430200084302000898
:2001000043020008251B00084302000843020008430200084302000843020008430200087C
:20012000430200084302000843020008430200084302000843020008430200084302000857
:20014000430200084302000843020008430200084302000843020008430200084302000837
:20016000430200084302000843020008430200084302000843020008430200084302000817
:20018000430200084302000800F002F800F03CF80AA090E8000C82448344AAF10107DA453A
:2001A00001D100F031F8AFF2090EBAE80F0013F0010F18BFFB1A43F001031847BC74000026
:2001C000DC740000103A24BF78C878C1FAD8520724BF30C830C144BF04680C6070470000A0
:2001E0000023002400250026103A28BF78C1FBD8520728BF30C148BF0B6070471FB505F00D
:200200002DFE1FBD10B510BD00F0A8F81146FFF7F5FF05F02FFB00F0C6F803B4FFF7F2FF09
:2002200003BC00F0CDF800000948804709480047FEE7FEE7FEE7FEE7FEE7FEE7FEE7FEE772
:20024000FEE7FEE704480549054A064B704700009D35000889010008F0390020F06D0020B1
:20026000F03D0020F03D002053EA020C00F069802DE9F04B4FF00006002B1FBFB3FA83F5FC
:2002800003FA05F424FA05F65E4012BF1643B2FA82F502FA05F4C5F120051EBF22FA05FC9A
:2002A00044EA0C04203556EA044C4FEA144418BF641C4FF000084FF00009904271EB030C67
:2002C00039D3002919BFB1FA81F701FA07F6B0FA80F700FA07F6C7F120071EBF20FA07FC05
:2002E00046EA0C062037B6FBF4FCA7EB0507103F07F01F0BCBF120060CFA0BFB2CFA06F6A6
:2003000044BFB3460026202FA4BF5E464FF0000B5BEA060C08BF4FF0010B19EB0B09ABFBF4
:20032000027C48EB0608C01B06FB02CC0BFB03CC71EB0C01C1E70B46024641464846BDE81B
:20034000F08B13B54FF000004FF00001AFF30080BDE81C407047704770477047754600F031
:200360002BF8AE4605006946534620F00700854618B020B5FFF766FFBDE820404FF00006F5
:200380004FF000074FF000084FF0000B21F00701AC46ACE8C009ACE8C009ACE8C009ACE8D0
:2003A000C0098D46704710B50446AFF300802046BDE81040FFF731BF004870478C39002094
:2003C00001491820ABBEFEE7260002007047000008B503F003FB03F021F803F013F901F0C4
:2003E0000BFE02F089FD1C491C4800F066FB10BB03201B49087001221AA11B4804F08EFBDA
:2004000017490870084600780D2814D14FF48050164B00220721009012A004F011F81049CE
:2004200008700846007830B901220EA10E4804F075FB0B4908700E490E4800F03EFB48B966
:2004400003200D49087001220CA10D4804F066FB0949087008BD000006000020647600089A
:2004600001000020303A000070180020A4280020020000202876000800000020313A00000A
:200480003C08002000BFFEE770B500254FF4803400E0641E24B1802001F018FB0028F8D048
:2004A00014B90325284670BD40F2FF5001F0CAFA2846F8E72DE9F041064600274848056872
:2004C00001E04748056805F045000028F9D005F0040030B10327042001F0B4FA3846BDE82A
:2004E000F08105F0010028B10127012001F0AAFA3846F4E701F0E4FAB04202D0102738463D
:20050000EDE740F2FF5001F09DFA002001F0FEFA04463448204008B93846E0E704F0004095
:2005200008B11C20DBE704F0804008B10920D6E704F0005008B10A20D1E704F0805008B155
:200540000B20CCE704F0006008B10C20C7E704F0806008B10D20C2E704F0807008B10E20A8
:20056000BDE704F4000008B10F20B8E704F4800008B11020B3E704F4001008B11120AEE7D6
:2005800004F4801008B11220A9E704F4002008B11320A4E704F4802008B114209FE704F4C6
:2005A000003008B115209AE704F4803008B1162095E704F4004008B1172090E704F4804032
:2005C00008B118208BE704F4005008B1192086E704F0080008B11A2081E738467FE70000D6
:2005E000342C014008E0FFFD70B500251048046801E00F48046804F045000028F9D004F0A6
:20060000040028B10325042001F01CFA284670BD04F0010028B10125012001F013FA28468E
:20062000F5E740F2FF5001F00DFA2846EFE70000342C014070B500250B48046801E00A4844
:20064000046804F045000028F9D004F0040028B10325042001F0F6F9284670BD40F2FF50EB
:2006600001F0F0F92846F8E7342C01402DE9F04106460F464FF000082248056801E0214862
:20068000056805F045000028F9D005F0040038B14FF00308042001F0D5F94046BDE8F08117
:2006A00005F0010030B14FF00108012001F0CAF94046F3E701F004FAB04203D04FF01008DB
:2006C0004046EBE740F2FF5001F0BCF9002001F01DFA044604F4604018B9200C3880404656
:2006E000DCE704F4005008B11320D7E704F4804008B11020D2E704F4004008B10F20CDE717
:200700004046CBE7342C014070B500264FF480350F48046802E06D1E0D48046804F0450093
:2007200008B9002DF7D115B104F0040028B10326042001F087F9304670BD04F0400028B1FE
:200740000026402001F07EF93046F5E73046F3E7342C01400246094B9A4201D2084801E0EC
:200760000648103801F000531BB1064B0B40C36002E0044B0B408360704700001064024048
:20078000006002407D0F7D0F21B1026842F00102026003E0026822F0010202607047000051
:2007A000016821F0010101600021016041608160C1600161212141614A49884204D13D2161
:2007C000484A103A91608CE046491831884205D14FF47461434A103A916082E0414930313B
:2007E000884205D14FF474113E4A103A916078E03C494831884205D14FF07461394A103AF7
:2008000091606EE037496031884204D13649354A103AD16065E033497831884204D13349EB
:20082000304A103AD1605CE02E499031884204D12F492C4A103AD16053E02A49A8318842FE
:2008400005D14FF03D51274A103AD16049E02949884204D13D21274A083A116041E02549BE
:200860001831884205D14FF47461224A083A116037E020493031884205D14FF474111D4AA8
:20088000083A11602DE01B494831884205D14FF07461184A083A116023E016496031884235
:2008A00004D11149134A121F11601AE011497831884204D10D490F4A121F116011E00D49D6
:2008C0009031884204D10A490A4A121F116008E00849A831884204D14FF03D51054A121F71
:2008E00011607047106002403D000020400F002000003D201064024021B1026842F02002AF
:20090000026003E0026822F020020260704710B501F080034BB122B1436943F080034361CD
:2009200003E0436923F08003436180290BD02AB1036801F01E042343036004E0036801F008
:200940001E04A343036010BD10B500220268134B1A40CC680B6823434C6923438C692343D3
:20096000CC6923430C6A23434C6A23438C6A23434C6B23438C6B23431A430260426922F092
:200980000702D1E90B3423431A4342610B6943604B6883608B68C36010BD00003F801CF094
:2009A00070472DE9F04107460C460026002509E036023919491B491EC8B200F008F806445D
:2009C000681CC5B2A542F3DB3046BDE8F08170B50446002600F06AFB2546E11704EB11612D
:2009E0000912A02202EB4101C8B200F059FC00F09BFCE11704EB11610912A4EB0121C8B206
:200A000000F04EFC00F090FC00F050FBA12000F047FC00F089FC002000F008FC064600F02C
:200A200075FB304670BD00002DE9F04105460E461746002411E0E20026FA02F2D1B22A198F
:200A4000D0B200F011F84FF0000801E008F1010804488045FADB601CC4B2BC42EBDBBDE8B0
:200A6000F0810000A086010070B504460E4600F01DFB2546E11704EB11610912A02202EB85
:200A80004101C8B200F00CFC00F04EFCE11704EB11610912A4EB0121C8B200F001FC00F0EC
:200AA00043FC304600F0FCFB00F03EFC00F02EFB41F2883003F046FA70BD30B504460D468A
:200AC00000222946204600F001F830BDF0B50346012500241148807B02281CDC00200F4E1E
:200AE000B67B0E4FB8553846867B001D40F82630001F867B0C3082553E46B07B461CBE73BC
:200B0000044604F1300008703A2048702F2088700020C87000252846F0BD00007C39002028
:200B200030B10749096841F48061054A116005E00349096821F48061014A11607047000032
:200B4000003C024070B504460A460026092502B909E0012A01D1160205E0022A01D1160250
:200B600001E04FF4407600F09FF80546092D28D11548006820F44070134908600846006897
:200B8000304308600846006820F0F80008600846006844F0020108430B49086008460068AA
:200BA00040F48030086000F07FF805460648006820F00200044908600846006820F0F800FC
:200BC0000860284670BD0000103C024009201349096801F48031B1F5803F01D101201CE094
:200BE0000E49096801F0100109B1062015E00B49096801F4807109B102200EE00749096820
:200C000001F0E00109B1072007E00449096801F0020109B1082000E0092070470C3C02405C
:200C20000348006840F000400149086070470000103C024030B502460C46092500F034F8D1
:200C40000546092D19D10E48006820F440700C4908600846006840F4007008600846006872
:200C600040F001000860146000F01EF805460448006820F0010002490860284630BD000043
:200C8000103C02400548006800F0004028B1044802490C390860034808607047103C0240CC
:200CA00023016745AB89EFCD08B509200090FFF78DFF009002E0FFF789FF00909DF8000067
:200CC0000128F8D09DF8000008BD000051B18200A2F1C042126842F001038200A2F1C042E9
:200CE000136009E08200A2F1C0421268034B1A408300A3F1C0431A6070470000FEFF0F0008
:200D000030B50021002200230468A400A4F1C0442168424C2140D0E901452C43C5682C435D
:200D200005692C4345692C4385692C43C5692C43056A2C43456A2C43856A2C43C56A2C43C7
:200D4000056B2C4321430468A400A4F1C04421608468082C0BD10468A400A4F1C0442468F5
:200D600044F040050468A400A4F1C04425600468641CA400A4F1C044226802F04042446BF6
:200D80002468456B6D6844EA0514456BAD6844EA0524456BAD8944EA0544456B2D8A44EAED
:200DA0000554456B2D7D44EA0564456BAD692C4322430468641CA400A4F1C0442260C46A76
:200DC000B4F5804F20D10468A400A4F1C044D4F80431134C2340846B2468856B6D6844EAD0
:200DE0000514856BAD6844EA0524856BAD8944EA0544856BAD692C4323430468A400A4F161
:200E0000C044C4F8043107E06FF070450468A400A4F1C044C4F8045130BD00008000F7FFC5
:200E20000000F0CF2DE9FC4107460D460026002400200090019008205B4908601020486069
:200E4000402088600020C8604FF480600861084600F0AEFE1020FFF72DFB044614B12046C9
:200E6000BDE8FC815148008800044F49086037204860402088600020C8604FF48060086110
:200E8000084600F095FE3720FFF714FB04460CB12046E5E74FF0FF304549086008204860B8
:200EA000302088600220C8600020086101204861084600F0DFFD00203B490860332048603C
:200EC000402088600020C8604FF480600861084600F06EFE3320FFF7EDFA04460CB12046AF
:200EE000BEE709E04FF4001000F0F0FD20B100F059FE4DF82600761C2E48006840F22A6184
:200F000008400028EED0082000F0E0FD28B1082000F098FD04242046A2E7022000F0D6FD2C
:200F200028B1022000F08EFD0224204698E7202000F0CCFD28B1202000F084FD062420461D
:200F40008EE74FF4007000F0C1FD30B14FF4007000F078FD0724204682E740F2FF5000F057
:200F600071FD00980006009901F47F4140EA0120009901F47F0140EA1120009940EA11602F
:200F8000686001980006019901F47F4140EA0120019901F47F0140EA1120019940EA1160B1
:200FA000286020465CE70000503900201400002064390020342C0140F0B50A46002100238C
:200FC000002400BF3DE0012505FA01F3156805EA03049C4234D105684F000326BE40B543C7
:200FE000056015794E00B5400668354305601579012D02D01579022D16D185684F000326D9
:20100000BE40B543856055794E00B540866835438560456801268E40B5434560456896799E
:201020008E40B6B235434560C5684F000326BE40B543C560D5794E00B540C6683543C56041
:20104000491C1029BFD3F0BDF0B5002300244D07ED0E02FA05F3CE1000F1200555F82650CD
:201060004E07F70E0F26BE40B543CF1000F1200646F82750CE1000F1200555F8265045EA5A
:201080000304CE1000F1200545F82640F0BD0246002013690B400BB1012000E00020704742
:2010A000418370470183704700BFFEE710B51648006820F44000144908600846006840F448
:2010C0008000086000BFC9140F48FFF7EBFF00BF00BF4FF480610C48FFF7E4FF00BF0520A2
:2010E00002F030FF00BF4FF400610748FFF7D8FF00BF052002F026FF00BF4FF48061024828
:20110000FFF7CEFF00BF10BD0004024010B51648006820F44000144908600846006840F4AC
:201120008000086000BF09150F48FFF7B9FF00BF00BF4FF400610C48FFF7B2FF00BF0520E4
:2011400002F000FF00BF4FF480610748FFF7AAFF00BF00BF4FF400610348FFF7A3FF00BF09
:20116000052002F0EFFE10BD0004024010B500BF4FF480611448FFF793FF00BF124800684B
:2011800020F44000104908600846006840F48000086000BFC9140C48FFF782FF00BF022020
:2011A00002F0D0FE00BF4FF480610748FFF77AFF00BF022002F0C6FE00BF4FF4806102480A
:2011C000FFF76EFF00BF10BD0004024010B500BF4FF480611448FFF763FF00BF12480068FD
:2011E00020F44000104908600846006840F48000086000BFC9140C48FFF754FF00BF0220EE
:2012000002F0A0FE00BF4FF480610748FFF74AFF00BF022002F096FE00BF4FF48061024839
:20122000FFF73EFF00BF10BD0004024070B5054600241A48006820F44000184908600846E0
:201240000068086000261FE000BF4FF480611348FFF726FF00BF022002F074FE00BF4FF4F9
:2012600080610E48FFF71EFF00BF6006040E0B4810300068C0F3C02008B1601CC4B2012093
:2012800002F060FE701CC6B2082EDDDB15B9FFF79DFF01E0FFF76AFF204670BD0004024093
:2012A00070B504461F48006820F440001D4908600846006840F48000086000BF09151948BE
:2012C000FFF7EEFE00BF002529E000BFE00928B14FF400611348FFF7E5FE04E04FF400615E
:2012E0001048FFF7DDFE00BF6006040E022002F029FE00BF4FF480610A48FFF7D3FE00BF98
:20130000022002F01FFE00BF4FF480610548FFF7C7FE00BF022002F015FE681CC5B2082D9B
:20132000D3DB70BD0004024010B500241A48006820F440001849086008460068086000BFDF
:20134000C9141548FFF7AEFE00BF012002F0FAFD00BF4FF480611048FFF7A4FE00BF012035
:2013600002F0F0FD07E0601CC4B2FA2C03DDFFF7CDFE012010BD084810300068C0F3C02075
:201380000028F0D100BF4FF480610348FFF788FE00BF0020EEE700000004024070B506464F
:2013A0000024002500BF0EE0002406E032462946204600F021F8601C84B205480088A0426E
:2013C000F4DC681C85B202484088A842ECDC70BDA43800200121074A91712C21D1712A2146
:2013E00011722B2151724FF4A0711180F021518070470000A438002030B504460D46154901
:20140000087A00F007F9201200F0F8F8E0B200F0F5F8201200F0F2F8E0B200F0EFF80D490E
:20142000487A00F0F7F8281200F0E8F8E8B200F0E5F8281200F0E2F8E8B200F0DFF80549E7
:20144000C87900F0E7F8101200F0D8F8D0B200F0D5F830BDA438002008B503480078009062
:20146000BDF8000008BD0000000004602DE9F84F80460E4617461C46B3462046E31704EB10
:201480005373DB1021464FEAE47C04EB5C7C4FEAEC0CA4EBCC0CBCF1000F02D04FF0010C62
:2014A00001E04FF0000C6344224604EBD27C4FEA6C0C03FB0CF3DBB20093A7F12000C7B2B5
:2014C000002556E00C2C07D107EB47002B4901EB800010F8059013E0102C05D1284800EB8B
:2014E000071010F805900BE0182C07D107EBC700244901EB800010F8059001E0BDE8F88FF5
:201500004FF0000A2FE009F0800030B11E48028831464046FFF770FF07E00A9828B91B48FA
:20152000028831464046FFF767FF4FEA49604FEA1069701C86B216484088B04200DCDDE7B8
:20154000A6EB0B00A0420AD15E4608F101001FFA80F80F480088404500DCCFE706E00AF12C
:20156000010000F0FF0ABAF1080FCCDB00BF681CC5B200988542A5DB00BFBFE7665E00083E
:20158000DA620008CA6800080C0000200E000020A43800202DE9F84704460D4690469946D0
:2015A000DDE9096704F0FF0A08EB04001FFA80F809EB05001FFA80F916E0444502DB5446EF
:2015C000A81985B24D4500DB14E0002000903A78334629462046FFF749FF304606EBD0711C
:2015E00004EB61018CB27F1C38787E2802DC38782028E2DA00BFBDE8F887000001B59DF8AB
:20160000000000909DF800000149087008BD00000000046001B59DF8000000909DF800004A
:201620000149087008BD0000FFFF036070B504460D461E462A20FFF7EDFF2012FFF7DEFF6B
:20164000E0B2FFF7DBFFA118491EC1F30720FFF7D5FFA118491EC8B2FFF7D0FF2B20FFF7C3
:20166000D9FF2812FFF7CAFFE8B2FFF7C7FFA919491EC1F30720FFF7C1FFA919491EC8B2E6
:20168000FFF7BCFF2C20FFF7C5FF70BD2DE9F74FADF5845D01220DF58050D0F8881006A884
:2016A00003F066FA0590059820BB04AB022241F24401694406A803F058FB0DF58050B0F864
:2016C000440044F64251884204D023B00DF5805DBDE8F08F04AB0C2203F5835106A803F03B
:2016E00044FB04AB282241F24801694406A803F03CFB00E0E9E70DF58050C66CD0F8508065
:201700000146B1F8562002FB06F101F11F00C21700EBD26149114FEA8109B9F5707F00DDD0
:20172000D3E70DF58050B0F85600182851DB1FFA88F3B2B20DF58050D0F88410D0F8800045
:2017400002F00EF900273DE0002407E02448011904AB142206A803F008FB14344C45F5DB89
:2017600000242CE004EB44051D49A81C11F800A0681C11F800B00846405D0DF58051C86704
:201780004FEAEA01CA024FEAAB0142EA41120DF58051C96F42EAE1010812FFF72FFF4FEA65
:2017A000EA01CA024FEAAB0142EA41120DF58051C96F42EAE101C8B2FFF720FF641CB442F0
:2017C000D0DB7F1C08F101008742BDDB02F0EEF800E07AE706A802F021FE00BF75E7000075
:2017E000A428002000BFFEE77047000070B5002100230F22C4781CB3174C246804F4E064D2
:20180000C4F5E064C4F30721C1F10404E3B20A4144789C40E1B28478144021430C07210E31
:201820000E4C05786155047804F01F050124AC4005786D11AD0005F1E025C5F8004109E0EC
:20184000047804F01F050124AC40054D0678761145F8264070BD00000CED00E000E400E01F
:2018600080E100E002490143024A1160704700000000FA050CED00E00149086270470000E1
:2018800000000E427047000029B1064A12680243044B1A6004E0034A12688243014B1A6059
:2018A000704700003038024029B1064A12680243044B1A6004E0034A12688243014B1A60DF
:2018C000704700003838024029B1064A12680243044B1A6004E0034A12688243014B1A60B7
:2018E000704700004038024029B1064A12680243044B1A6004E0034A12688243014B1A608F
:20190000704700004438024029B1064A12680243044B1A6004E0034A12688243014B1A606A
:2019200070470000243802407CB50546002400200090019000F0EAF800F0007010B10E244C
:2019400020467CBD3D49098888B26946FFF76AFA04460CB12046F4E7012D36D1019800F484
:20196000802000282ED03548008800043449086037204860402088600020C860A802086111
:20198000084600F015F93720FEF794FD04460CB12046D6E702202A490860062048604020C9
:2019A00088600020C8604FF480600861084600F0FFF80620FEF77EFD04460CB12046C0E78C
:2019C0002046BEE725242046BBE7019800F4803078B31A480088000419490860372048608C
:2019E000402088600020C8604FF480600861084600F0DEF83720FEF75DFD04460CB12046A4
:201A00009FE700200E49086006204860402088600020C8604FF480600861084600F0C8F879
:201A20000620FEF747FD04460CB1204689E7204687E7FFE72524204683E700001400002063
:201A4000503900200149086070470000382C01400149086070470000382C0140014908600F
:201A600070470000A080254201490860704700008C85254200210B4B02681A601B1D42680A
:201A80001A601A1D116821F0F701D0E902231A4303691A4343691A431143024A08321160BB
:201AA00070470000242C014010B50121C802FFF72BFF00214FF40060FFF726FF10BD000061
:201AC00001480068C0B27047102C014001460020034A12680A400AB1012000E000207047A4
:201AE000342C014001460020034A12680A400AB1012000E000207047342C014002480068E7
:201B000000F0030070470000002C014008B50146002000900248084400900098006808BD0F
:201B2000142C014010B500F007FD10BD29B1064A12680243044B1A6004E0034A126882437C
:201B4000014B1A60704700003C2C014000210A4A116847F6FF629143027D83681A4343688D
:201B60001A43C3681A4303681A4303691A431143014A116070470000042C014008B54FF4B7
:201B8000C060FFF76FFE31208DF8000000208DF801008DF8020001208DF803006846FFF772
:201BA00025FE08BD0148006870470000802C01400021094B02681A601A1D11686FF30A0172
:201BC000D0E901231A43C3681A4303691A431143014A121D11607047082C0140014908605D
:201BE00070470000002C014008B50120009008210448FFF74CFA08B1002000909DF80000A4
:201C000008BD0000000C024070B50446002520480068032802D12725284670BD1C4800689C
:201C200038B11B480068012803D01948006802282CD1B4F5805F02D127252846EDE7B4F572
:201C4000006F13D10120FFF76FFE0546F5B90020104908750860486088604FF40060C860FB
:201C6000002008610846FFF771FF0FE00020FFF75BFE054655B90020064908750860486074
:201C80008860C86008610846FFF760FF2846C4E71000002038390020F0B501460020002220
:201CA000C04B1B7881F85630BF4B1B88A1F85430BE4B1B681A0E93090B70C2F383034B70FC
:201CC00002F003038B70B94B1B68C3F30742CA70B64B1B88C3F307220A71B44B1A784A7107
:201CE0005B681A0E1301CB80B04B5B68C3F30742CB8843EA1213CB8002F00F030B72AB4B76
:201D00009B88C3F30722D3094B72C2F380138B72C2F34013CB72C2F300130B7300234B7377
:201D2000A04B1B681BB19F4B1B68012B4FD193071B0D0B619D4B1A790B6943EA82030B6175
:201D40009A4B9B681A0E0B6943EA92130B61C2F3C2030B7502F007034B75944B9B68C3F373
:201D6000074253098B75C2F38203CB7593075B0F0B768E4B1B89C3F307220B7E43EAD213C8
:201D80000B760B695B1C0024C1E912340B7ED1E912469B1C012505FA03F3DF17A4FB035C62
:201DA00006FB03C304FB0733C1E912530C7A0123A3400B650027D1E912560B6DA5FB034C67
:201DC00006FB03C305FB0733C1E9124336E0754B1B68022B32D1754B1A7993069B0A0B617D
:201DE000724B9B681A0E0B6943EA02230B616F4B9B68C3F307420B6913430B616B4B1B897D
:201E0000C3F307220B6900245B1C44EB04074FF400760025A3FB064C07FB06C603FB056695
:201E20004FF480650027A4FB053C06FB05C504FB0754C1E912344FF400730B65C2F38013F0
:201E400001F8193F93065B0E4B70584B1A7A4B7843EAD2134B7002F07F038B70534BDB685D
:201E60001A0ED309CB70C2F341130B71C2F382034B7193071B0F8B714C4BDB68C3F307420F
:201E80008B7943EA92138B71C2F34013CB7100230B7202F001034B72444B9B89C3F3072247
:201EA000D3098B72C2F38013CB72C2F340130B73C2F300134B73C2F381038B7302F0030389
:201EC000CB733A4B1A7B53080B7401234B74384B1B681A0ECA741939354B1B68C3F307422D
:201EE0001402CC85324B1B88C3F30722CB8D1343CB852F4B1A7814060C635B681A0E0B6B88
:201F000043EA02440C632A4B5B68C3F307420B6B43EA02240C63264B9B88C3F307220B6B87
:201F200013430B63224B1A7934235A54204B9B681A0E35235A541E4B9B68C3F307421406B7
:201F40008C631B4B1B89C3F307228B6B43EA02448C63174B1A7A8B6B43EA02248C63144BC4
:201F6000DB681A0E8B6B13438B63114BDB68C3F307423C235B5C43EA12143C235C5413078C
:201F80001C0DCC870A4B9B89C3F30722CB8F1343CB87074B1A7B540840235C54012441238C
:201FA0005C54F0BD1000002014000020B0380020C038002008B500200090FFF715FE0128A1
:201FC00009D1684600F01EFC08B1FF2008BD0098C0F34320FAE7FF20F8E710B50424FFF762
:201FE000E9FF0446042C01D1002010BDFF2C01D10220FAE70120F8E708B500200090FFF75D
:20200000BDFD00F06BF9FFF74FFD00F0C5F900909DF8000010B19DF8000008BD00F032F868
:2020200000909DF8000010B19DF80000F5E7002012490875086048608860C860086108467A
:20204000FFF784FD0E48FFF727FE00909DF8000040B90B48B0F8540002041046002100F0BE
:20206000B5FB00909DF8000020B94FF40060FFF7CBFD00909DF80000CFE7000038390020E5
:20208000E038002038B5002401200090FFF736FD10B92524204638BD44480068042828D098
:2020A00000204349086002204860C02088600020C8604FF4806008610846FFF779FDFEF7F7
:2020C00093FA04460CB12046E5E70020FFF71EFD384908600420FFF719FD364948600820A1
:2020E000FFF714FD334988600C20FFF70FFD3149C8602E48006858B12C480068012807D0E2
:202100002A480068062803D028480068022816D100202749086003204860402088600020D0
:20212000C8604FF4806008610846FFF741FD69460320FEF79BFA04460CB12046ABE71B48AB
:20214000006804282ED0BDF800001B490860BDF8000000041649086009204860C020886053
:202160000020C8604FF4806008610846FFF720FDFEF73AFA04460CB120468CE70020FFF70B
:20218000C5FC0E4908600420FFF7C0FC0B4948600820FFF7BBFC094988600C20FFF7B6FC0A
:2021A0000649C8600024204675E700001000002050390020C038002014000020B038002095
:2021C00030B58FB005460C464FF0FA511D48FEF7C1FA00211B48FEF7D7FA1A48FEF7E0FA24
:2021E0004FF00060009018480190029500200390049405904FF480600690800007908000F8
:202200000890002009904FF440300A9004200B9003200C904FF400000D9080100E906946E5
:202220000848FEF791FB012210210648FEF76FFB20210448FEF760FB01210248FEF7A4FAF0
:202240000FB030BD58640240802C014030B58FB005460C464FF0FA511E48FEF77BFA0021AB
:202260001C48FEF791FA1B48FEF79AFA4FF00060009019480190029540200390049400202B
:2022800005904FF4806006908000079080000890002009904FF440300A9004200B900320D9
:2022A0000C904FF400000D9080100E9069460948FEF74AFB012210210648FEF728FB20213F
:2022C0000448FEF719FB01210248FEF75DFA0FB030BD000058640240802C01401CB5012167
:2022E0000C20FFF7D1FA0C2208212948FEF7ACFE0C2209212648FEF7A7FE0C220A21244865
:20230000FEF7A2FE0C220B212148FEF79DFE0C2211461F48FEF798FE0C2202211D48FEF7B3
:2023200093FE4FF47060009002208DF805008DF8040000208DF8060001208DF8070069462D
:202340001348FEF739FE0420009069461148FEF733FE4FF48050009000208DF80700694616
:202360000B48FEF729FE0820009000208DF8040001208DF8070069460648FEF71DFE0121B1
:20238000C802FFF7B1FA01218805FFF77DFA1CBD00080240000C0240F8B5002000900025C3
:2023A00000240026002776205F4908750020086048608860C86008610846FFF7C7FB03201F
:2023C000FFF70CFC0120FFF749FB00205749086048608860C8604FF4806008610846FFF7F4
:2023E000E7FBFEF751F800909DF8000010B19DF80000F8BD4FF4D5704C4908600820486038
:20240000402088600020C8604FF4806008610846FFF7CEFBFEF778F900909DF8000020B92F
:20242000012043490860870712E000203F49086037204860402088600020C8604FF4806045
:2024400008610846FFF7B4FB3720FEF733F8009000203649086037204860402088600020AB
:20246000C8604FF4806008610846FFF7A1FB3720FEF720F800909DF80000002851D13BE0DA
:2024800000202A49086037204860402088600020C8604FF4806008610846FFF789FB372007
:2024A000FEF708F800909DF8000010B19DF800009FE7204838431D49086029204860402024
:2024C00088600020C8604FF4806008610846FFF76FFBFEF7AFF800909DF8000010B19DF87B
:2024E000000086E70020FFF711FB0546012080EAD57080F00106641C1EB94FF6FF708442EA
:20250000BED34FF6FF70844204D31B2000909DF800006EE705F08040051E02D0022004490B
:2025200008609DF8000064E73839002050390020100000200000108010B54FF48070FFF76B
:20254000D1FA50B10020254908704FF48070FFF77FFA01202249086037E00220FFF7C2FA28
:2025600030B10220FFF774FA02201C4908702CE00820FFF7B7FA30B10820FFF769FA042094
:202580001649087021E02020FFF7ACFA30B12020FFF75EFA06201149087016E01020FFF704
:2025A000A1FA30B11020FFF753FA05200B4908700BE04FF40070FFF795FA30B14FF4007084
:2025C000FFF746FA07200549087000214CF23A30FFF7ACFA0148007810BD00001C000020A9
:2025E000200000202DE9F041804614461D46069E0027002030490870304908603049086033
:2026000030490860012140F22A30FFF78FFA0120FFF72AFA31464046FFF7D2FD2A480068D5
:20262000022808D106020202002320462946FDF71BFE04460D4625480660102023494860D2
:20264000402088600020C8604FF4806008610846FFF7AEFA1020FDF72DFF074617B138468F
:20266000BDE8F0814FF0FF301949086008464660902088600220C8600020086101204861E3
:202680000846FFF7F7F91148046011200F494860402088600020C8604FF4806008610846AE
:2026A000FFF786FA1120FDF705FF07460FB13846D6E73846D4E700001C000020200000207E
:2026C000180000202C2C01401000002050390020643900202DE9F047814614461D46DDE9FC
:2026E0000868002700203249087032490860012031490860002031490860012140F22A309A
:20270000FFF714FA08FB06F14846FFF759FD0120FFF7AAF92A480068022808D1060202023E
:20272000002320462946FDF79FFD04460D4625480660102023494860402088600020C860CD
:202740004FF4806008610846FFF732FA1020FDF7B1FE074617B13846BDE8F0874FF0FF308D
:202760001949086008FB06F04860902088600220C86000200861012048610846FFF77AF902
:202780001048046012200F494860402088600020C8604FF4806008610846FFF709FA1220B6
:2027A000FDF788FE07460FB13846D5E73846D3E71C00002020000020180000202C2C0140D3
:2027C00010000020503900206439002070B504460D4600260A480460072009494860402044
:2027E00088600020C8604FF4806008610846FFF7DFF90720FDF75EFE0646304670BD00009B
:202800005039002070B50446002514B92625284670BD0F48008800040E4908600D20486051
:20282000402088600020C8604FF4806008610846FFF7BEF90D20FDF73DFE05460DB12846AE
:20284000E6E70020FFF762F920602846E0E70000140000205039002010B5002400200A494C
:2028600008600C204860402088600020C8604FF4806008610846FFF79BF90C20FDF71AFEF0
:202880000446204610BD00005039002070B500256C1E00E0641E1848006838B9174800685C
:2028A00020B91748007808B9002CF3D1002012490860441E00E0641E1248006800F400500A
:2028C00008B1002CF7D110480068012805D1FFF7C3FF054600200C4908600CB905B9042500
:2028E00040F2FF50FFF7AEF80548007810B10448007870BD2846FCE724000020200000206F
:202900001C000020342C01401800002070B500256C1E00E0641E1848006838B917480068EC
:2029200020B91748007808B9002CF3D1002012490860441E00E0641E1248006800F4805009
:2029400008B1002CF7D110480068012805D1FFF783FF054600200C4908600CB905B90425BF
:2029600040F2FF50FFF76EF80548007810B10448007870BD2846FCE724000020200000202E
:202980001C000020342C0140180000202DE9F041804614461D46069E002700202F4908707D
:2029A0002F4908602F4908602F490860012140F22A30FFF7BBF831464046FFF747FC0120C9
:2029C000FFF752F829480068022808D106020202002320462946FDF747FC04460D46244897
:2029E0000660102022494860402088600020C8604FF4806008610846FFF7DAF81020FDF7D8
:202A000059FD074617B13846BDE8F08118480460182017494860402088600020C8604FF4E0
:202A2000806008610846FFF7C3F81820FDF742FD07460FB13846E7E74FF0FF300D4908605E
:202A400008464660902088600020C8600861012048610846FFF70EF83846D5E71C000020AF
:202A600020000020180000202C2C01401000002050390020643900202DE9F0478146154640
:202A80001E46DDE908780024002049490870494908600120484908600020484908600121EF
:202AA00040F22A30FFF742F808FB07F14846FFF7CDFB0120FEF7D8FF41480068022808D132
:202AC00007020202002328463146FDF7CDFB05460E463C48076010203A49486040208860F8
:202AE0000020C8604FF4806008610846FFF760F81020FDF7DFFC044614B12046BDE8F087D6
:202B00003148008800042F49086037204860402088600020C8604FF4806008610846FFF771
:202B200047F83720FDF7C6FC04460CB12046E5E72448C0F8008017202249486040208860DA
:202B40000020C8604FF4806008610846FFF730F81720FDF7AFFC04460CB12046CEE71948DC
:202B60000560192017494860402088600020C8604FF4806008610846FFF71AF81920FDF710
:202B800099FC04460CB12046B8E74FF0FF300F49086008FB07F04860902088600020C860E4
:202BA0000861012048610846FEF764FF2046A5E71C00002020000020180000202C2C0140FD
:202BC0001000002050390020140000206439002010B50446012007490870FFF70DFA28B955
:202BE0000448007820F00100024908700148007810BD00002C000020F0B597B007460D46D7
:202C0000144601261348007800F0010010B1032017B0F0BD35B1012D06D0022D0BD0032DF3
:202C200013D10DE0002612E06846FFF735F81298206000260BE04FF400702080002606E040
:202C40004FF400702060002601E0042600BF00BF3046DDE72C0000202DE9FC4180460E469F
:202C600014461D460027012D18D94FF4007061020A460023CDE900053046FFF72BFD10B1B8
:202C80000120BDE8FC81FFF701FE08B10120F8E700BFFFF7A2F90028FBD115E04FF4007057
:202CA00061020A46002300903046FFF79BFC08B10120E6E7FFF7EAFD08B10120E1E700BFC6
:202CC000FFF78BF90028FBD13846DAE710B50446012007490870FFF780F928B9044800783B
:202CE00020F00100024908700148007810BD00002C0000202DE9FC4180460E4614461D46FC
:202D00000027012D18D94FF4007061020A460023CDE900053046FFF7AFFE10B10120BDE889
:202D2000FC81FFF7F3FD08B10120F8E700BFFFF754F90028FBD115E04FF4007061020A4626
:202D4000002300903046FFF721FE08B10120E6E7FFF7DCFD08B10120E1E700BFFFF73DF932
:202D60000028FBD13846DAE721B1028842F04002028004E002884FF6BF731A400280704756
:202D800070B505460C4616464FF480511048FEF787F9032000F0A2F9C4F3074000F09EF901
:202DA000C4F3072000F09AF9E0B200F097F904E0FF2000F093F928706D1C301EA6F1010119
:202DC0008EB2F5D14FF480510148FEF76BF970BD000402402DE9F05F07460E4614464FF025
:202DE0000008C146C2460025AB4606F0FF0ACAF10000C5B22046E11704EB1161C1F30728D3
:202E0000E11704EB11610912A4EB012101F0FF09BAF1000F20D1B8F1000F05D1224631467C
:202E2000384600F0DBF864E009E04FF480723146384600F0D3F806F5807607F58077B8F1B2
:202E40000000A8F1010101F0FF08EED14A463146384600F0C3F84CE0B8F1000F18D1A94535
:202E600010DDA9EB050000F0FF0B2A463146384600F0B4F82E442F445A463146384600F067
:202E8000ADF836E022463146384600F0A7F830E0601B84B22046E11704EB1161C1F3072828
:202EA000E11704EB11610912A4EB012101F0FF092A463146384600F091F82E442F4409E048
:202EC0004FF480723146384600F088F806F5807607F58077B8F10000A8F1010101F0FF0838
:202EE000EED1B9F1000F04D04A463146384600F075F8BDE8F09F000000B587B00121022040
:202F0000FEF7C2FC01218803FEF7DEFC05220D213048FEF799F805220E212E48FEF794F8E2
:202F200005220F212B48FEF78FF84FF40050009002208DF805008DF8040000208DF8060048
:202F400001208DF8070069462248FEF735F84FF48040009069461F48FEF72EF84FF4004042
:202F6000009069461B48FEF727F84FF48050009001208DF8040069461648FEF71DF84FF4F4
:202F800080511448FEF78EF80020ADF808004FF48270ADF80A000020ADF80C000220ADF840
:202FA0000E000120ADF810004002ADF812000020ADF81400ADF816000720ADF8180002A911
:202FC000054800F0F5F801210348FFF7CDFE07B000BD0000000402400038004070B50546F7
:202FE0000C46164600F0B2F84FF480511348FEF757F8022000F072F8C4F3074000F06EF806
:20300000C4F3072000F06AF8E0B200F067F8B6F5807F01DD4FF4807603E0287800F05EF815
:203020006D1C301EA6F101018EB2F6D14FF480510248FEF737F800F06DF870BD00040240CF
:203040002DE9F04100240025002600274FF480510F48FEF725F89F2000F040F8FF2000F020
:203060003DF80546FF2000F039F80646FF2000F035F807464FF480510548FEF713F828042E
:2030800040EA062040EA07042046BDE8F08100000004024010B5044600F058F800F03AF878
:2030A0004FF480510C48FDF7FBFF202000F016F8C4F3074000F012F8C4F3072000F00EF8B0
:2030C000E0B200F00BF84FF480510348FDF7EAFF00F020F810BD00000004024010B5044605
:2030E00000BF02210A4800F055F80028F9D02146074800F05BF800BF0121054800F04AF815
:203100000028F9D0024800F04EF8C0B210BD00000038004010B500244FF480510A48FDF744
:20312000BFFF0520FFF7DAFF00BFFF20FFF7D6FF044604F001000028F7D14FF480510248A7
:20314000FDF7B0FF10BD00000004024010B54FF480510648FDF7A4FF0620FFF7BFFF4FF4DE
:2031600080510248FDF79EFF10BD00000004024010B54FF480510648FDF792FFAB20FFF723
:20318000ADFF4FF480510248FDF78CFF10BD0000000402400246002013890B400BB1012067
:2031A00000E0002070470146888970478181704710B50022028802F441520B884C882343C9
:2031C0008C882343CC8823430C8923434C8923438C892343CC8923431A430280838B4FF221
:2031E000FF74234083830B8A038210BD01461C48814201D2002070471A48814201D20820D4
:20320000F9E71948814201D21020F4E71748814201D21820EFE71648814201D22020EAE7C4
:203220001448814201D22820E5E71348814201D23020E0E71148814201D23820DBE710481F
:20324000814201D24020D6E70E48814201D24820D1E70D48814201D25020CCE75820CAE778
:20326000004000080080000800C00008000001080000020800000408000006080000080879
:2032800000000A0800000C0800000E0801460868704700002DE9F04704460E4617464FF0FD
:2032A00009080025A946B4F1006F02D304F0030008B1BDE8F087FDF7E5FC0020FDF730FC1F
:2032C000254604EB87091848854215D211E02846FFF7DCFF401C58B12846FFF787FF8246AF
:2032E0000221FDF72FFC8046B8F1090F01D002E02D1D4D45EBD300BFB8F1090F0CD108E073
:2033000020463168FDF796FC092800D003E0241D361D4C45F4D300BF0120FDF701FCFDF793
:203320007FFC00BFC5E700000000FF1F704700000CB50020019000903448006840F4803008
:203340003249086000BF3148006800F4003000900198401C0190009818B90198B0F5A04F1A
:20336000F1D12A48006800F4003010B10120009001E0002000900098012846D123484030D7
:20338000006840F080502149403108602048006840F440401E4908601C48083000681B49C7
:2033A000083108600846006840F4004008600846006840F4A05008601648091F0860081F83
:2033C000006840F08070091F086000BF0F48006800F000700028F9D040F205700E490860A0
:2033E0000A480830006820F003000849083108600846006840F00200086000BF0348083044
:20340000006800F00C000828F8D10CBD003802400070004008544007003C02401CB5012148
:203420000220FEF731FA4FF48060009001208DF8040000208DF8060003208DF80500012074
:203440008DF8070081020B48FDF72CFE69460948FDF7B2FD01210220FEF716FA4FF400605D
:20346000009001460348FDF71DFE69460148FDF7A3FD1CBD0004024070B5044601200A498D
:203480000870FFF739FD4FF4FA7500BF681E80B2051EFBD1FFF76CFE204600F045F8024932
:2034A00008700846007870BD3A00002010B5044601231248007800F0010008B1032010BDA8
:2034C00031B1012906D0022909D0032910D10BE000230FE04FF42060106000230AE04FF479
:2034E00080501080002305E001201060002301E0042300BF00BF1846E1E700003A000020AA
:203500002DE9F04180460D4614461E46002704F5C0644FF6FF7000EA063221032846FFF7EB
:203520002FFC3846BDE8F08110B5044601200A490870FFF785FD0949884206D106480078A0
:2035400020F001000449087002E00120024908700148007810BD00003A0000201840EF00A0
:203560002DE9F04781460F4614461D464FF0000815B90420BDE8F08704F5C0642603304614
:20358000FFF788FD4FF6FF7000EA053231463846FFF720FC4046EDE77047000010B51548A1
:2035A000006840F47000134908601348006840F001001149086000200F49083108600E4816
:2035C00000680E4908400C4908600D48091D0860081F006820F48020091F08600020064902
:2035E0000C310860FFF7A4FE4FF0006001498039086010BD88ED00E000380240FFFFF6FEF6
:203600001030002400B5A1B00020209001210803FEF73AF901217A20FEF736F901210846CB
:20362000FEF742F940201E9001208DF87C0000208DF87E0002208DF87D0001208DF87F00BE
:203640001EA9C348FDF7B8FC4EF2B3001E9002208DF87C0000208DF87E0003208DF87D00E4
:2036600001208DF87F001EA9BA48FDF7A5FC4FF4F0601E9002208DF87C0000208DF87E0040
:2036800003208DF87D0001208DF87F001EA9B048FDF792FC0C220021AE48FDF7D5FC0C2267
:2036A0000121AC48FDF7D0FC0C220421A948FDF7CBFC0C220521A748FDF7C6FC0C220721E6
:2036C000A448FDF7C1FC0C220D21A248FDF7BCFC0C220E219F48FDF7B7FC0C220F219D482D
:2036E000FDF7B2FC0C2207219948FDF7ADFC0C2208219748FDF7A8FC0C2209219448FDF75E
:20370000A3FC0C220A219248FDF79EFC0F200890002009903C200A9000200B900C900D90DF
:203720000E90092001900020029008200390002004900590069007900F90109011901290CC
:20374000139015901490169017904FF480501890002019904FF480401A9000201B9008A884
:203760001C9001A81D900FA8FDF7CAFA01210020FDF7ACFA40217648FDF792FCC82000F083
:20378000CFFB40217248FDF78DFC4FF4FA7000F0C7FB0420FDF73EFFFDF75EFEFDF75CFE75
:2037A000FDF75AFE6C498880084680884FF6FF7101EA002068498880FDF74EFE6649898831
:2037C000084365498880B220FDF724FF0C20FDF715FF0C20FDF712FF0020FDF70FFF332025
:2037E000FDF70CFF3320FDF709FFB720FDF712FF3520FDF703FFBB20FDF70CFF1620FDF750
:20380000FDFEC020FDF706FF2C20FDF7F7FEC220FDF700FF0120FDF7F1FEC320FDF7FAFEF7
:203820001320FDF7EBFEC420FDF7F4FE2020FDF7E5FEC620FDF7EEFE0F20FDF7DFFED020E1
:20384000FDF7E8FEA420FDF7D9FEA120FDF7D6FEE020FDF7DFFED020FDF7D0FE0420FDF7DB
:20386000CDFE1020FDF7CAFE1320FDF7C7FE1420FDF7C4FE2C20FDF7C1FE4120FDF7BEFEAB
:203880005420FDF7BBFE4E20FDF7B8FE1820FDF7B5FE0C20FDF7B2FE0A20FDF7AFFE212034
:2038A000FDF7ACFE2520FDF7A9FEE120FDF7B2FED020FDF7A3FE0420FDF7A0FE0F20FDF787
:2038C0009DFE1320FDF79AFE1520FDF797FE2C20FDF794FE4020FDF791FE4420FDF78EFE37
:2038E0005220FDF78BFE2D20FDF788FE1D20FDF785FE1E20FDF782FE2120FDF77FFE2420B6
:20390000FDF77CFE3620FDF785FEA020FDF776FE3A20FDF77FFE0520FDF770FE1120FDF7CD
:2039200079FE782000F0FCFA2920FDF773FE0020FDF750FDF0234FF4A07200210846FDF7B8
:2039400075FE4FF6FF70FDF729FD21B000BD000000100240000C0240A438002000BFFEE758
:203960002DE9F04104460D4616461F460E48808848F25251884207D100BF3620FDF74AFE74
:20398000E020FDF73BFE07E000BF3620FDF742FE2820FDF733FE00BF3B46324629462046D0
:2039A000FDF744FEBDE8F081A438002010B50A48808848F25251884206D13620FDF72AFEB0
:2039C000A020FDF71BFE05E03620FDF723FE6820FDF714FE10BD0000A43800201CB5012180
:2039E0000820FDF751FF01210846FDF74DFF01210220FDF749FF01214020FDF745FF4FF42E
:203A00008050009001208DF8040000208DF8060002208DF8050001208DF80700694604489D
:203A2000FDF7CAFA4FF480510148FDF739FB1CBD000C024070B504460D460020E070401E92
:203A400020632946204601F0A9FF08B1042070BD04F2322001F007FF4AF65521884201D0DB
:203A60000320F4E794F83400E92807D094F83400EB2815D13620005D902811D1032209A1CB
:203A800004F16A0001F062FF08B90020DFE7052205A104F1860001F059FF08B90020D6E79F
:203AA0000220D4E7464154004641543332000000024600E0521C107810B110788842F9D113
:203AC00010787047F0B503460D461E68986A021DB089B5FBF0F07789B0FBF7F400BF02CAD5
:203AE00009B90020F0BD8C4200D202E0641A121DF5E700BF10682044F4E70246891E9069CE
:203B0000801E884201D8002070475389D06A03FB0100F9E710B5ADF5025D00210DF500505F
:203B2000C167816701222BA1A0F6B47001F020F804462CB90A222AA108A801F019F80446A1
:203B4000ECBB3DE042F27C036B444FF48052274941F24C00684401F008F9044624B90DF574
:203B60000050B0F87C0058B941F24C00684400F055FC08A800F052FC00200DF5025D10BD18
:203B800042F278036B440DF50050B0F87C20174908A801F029FA04463CB90DF50050B0F8D4
:203BA0007810B0F87C0081420ADA41F24C00684400F034FC08A800F031FC0020DDE702E0D4
:203BC000002CBFD004E041F24C00684400F026FC0120D2E7313A2F31372E626D70000000C0
:203BE000303A2F31372E626D70000000A428002070B5ADF58A5D0026002501221CA144A8A6
:203C000000F0B6FF04461CB120460DF58A5D70BD002504E006EB0530FFF73CFA6D1CB5F5DE
:203C2000007FF7D31CE041F23C136B444FF4807204A944A801F099F804460CB12046E4E786
:203C40004FF48072314604A8FFF7C8F906F580760DF58050D0F83C01B0F5807F00D001E038
:203C6000002CE0D000BF44A800F0D8FB0020CCE7313A2F78626632312E786266000000007C
:203C80002DE9F04782468846DAF80040B8F1000F06D1276917B1A069B84215D8012713E03D
:203CA0004146504601F0B2FC0546022D02D20120BDE8F087681C08B92846F9E7A069A84237
:203CC00001D92846F4E74746606908B90020EFE70026474518D17E1CA069B04200D8022684
:203CE0003146504601F092FC0546012D01D0681C08B92846DCE73DB12569022D03D3A069EE
:203D0000A84200D92F460026E6B93E4600BF761CA069B04204D80226BE4201D90020C7E72A
:203D20003146504601F072FC054605B909E0012D01D0681C08B92846BAE7BE42E7D10020FA
:203D4000B6E700BF4FF0FF323146204601F040FE8146B9F1000F08D1B8F1000F05D032462D
:203D60004146204601F034FE8146B9F1000F0DD12661D4E90510801E814202D86069401E1A
:203D80006061207940F00100207107E0B9F1010F02D14FF0FF3000E001200646304687E7F4
:203DA0002DE9F35F8946D9F80080009800F120050B222021284601F0E8FD00200746064662
:203DC0004FF0080B00BF3046761C18F80040202C00DC4AE02F2C01D05C2C0AD100E0761C27
:203DE00018F806002F28FAD018F806005C28F6D03BE02E2C01D05F450BD3BBF10B0F01D0CD
:203E00002E2C02D00620BDE8FC9F08274FF00B0BD9E7204600F046F8A8B13046761C18F8C7
:203E200000A0504600F058F818B1ABF10100B84201D80620E7E738467F1C2C5438467F1C2D
:203E400005F800A010E0214612A0FFF731FE08B10620D8E7612C04DB7A2C02DCA4F1200054
:203E6000C4B238467F1C2C54ADE700BF08EB0600C9F800000FB90620C5E72878E52801D10D
:203E800005202870202C01DC042000E00020E8720020B8E7222A2B2C3A3B3C3D3E3F5B5D39
:203EA0007C7F000001460B48007888420FDC09484078884201DB01207047064880788842A9
:203EC00005DC0448C078884201DB0120F4E70020F2E700003C760008014610480079884246
:203EE00019DC0E484079884201DB012070470B488079884205DC0948C079884201DB0120F8
:203F0000F4E70648007A884205DC0448407A884201DB0120EAE70020E8E700003C7600080C
:203F200001B50020002100BF08E0002101E000BF491C47F230529142F9D3401C009A90429B
:203F4000F3D308BD01B50020002100BF06E0002101E000BF491C2329FBD3401C009A904232
:203F6000F5D308BD2DE9F04104460E46D4F800800021204600F014F90546EDB9002700BF28
:203F80004046A16901F00AFD054605B113E0E0690078E52802D0E069007820B9781C07468A
:203FA000B04201D107E000270121204600F06FF80546002DE4D000BF042D00D107252846C9
:203FC000BDE8F0812DE9F04704468946204601F081FE10B10120BDE8F08749462046FFF7A6
:203FE0008CFD06462663A289002104F1340001F0CCFC04F134080127002500E03D4460896D
:20400000A84207D9721960783B46414600F06CF90028F3D06089A84201D00120DBE7002084
:20402000D9E72DE9F041044627680021204600F0B7F8054615B12846BDE8F08100BF3846A8
:20404000A16901F0ABFC054605B11DE0E06906780EB9042518E0E069C07A00F03F00A0714E
:20406000E069C07A00F0080038B90B2204F12001E06901F06BFC00B906E00021204600F0DA
:2040800006F80546002DDAD000BF2846D4E72DE9F041044688462668206900F12007A06981
:2040A00010B1B7F5001F02D30420BDE8F081B089B7FBF0F100FB1170002847D1A069401C78
:2040C000A061606938B93089B0EB571F3ED80020A0610420E9E7B089B7FBF0F07189491E04
:2040E000084098BB2046616901F090FA0546012D01D80220D9E7681C08B90120D5E7B0690B
:20410000A8421DD8B8F1000F03D10020A0610420CBE720466169FFF7B3FD05460DB907202F
:20412000C3E7012D01D10220BFE7681C08B90120BBE729463046FFF745FF08B10120B4E771
:20414000656129463046FFF7D8FCA0612761B089B7FBF0F100FB117106F134000844E06160
:204160000020A2E770B50446266801212046FFF7F9FE054695B93046A16901F00FFC0546C4
:2041800065B920220021E06901F0FFFB0B2204F12001E06901F0ECFB0120F070284670BDEA
:2041A0002DE9F04104460E462568B6F5001F02D206F01F0010B10220BDE8F0812661A7684B
:2041C0001FB92878032800DBAF6A47B92889B0EB561F01D80220EFE7A86AA0611DE06889B5
:2041E000A98900FB01F811E03946204601F00EFA0746781C08B90120DEE7022F02D3A8692B
:20420000B84201D80220D7E7A6EB08064645EBD239462846FFF771FCA0616761A06908B921
:204220000220C9E7A889B6FBF0F0A1690844A061A889B6FBF0F100FB116105F134000844ED
:20424000E0610020B8E7000070B5044600250848005D58B901200649085501F10C02105DD2
:204260000A1D52F82420116888470546284670BD7C3900202DE9F04104460D4616460649F7
:20428000085D083951F8241032460B692946984707463846BDE8F081883900202DE9F041B8
:2042A00004460D4616461F460749085D083951F824103B463246D1F808C02946E047804647
:2042C0004046BDE8F08100008839002070B50446044A105D083A52F8242051688847054694
:2042E000284670BD883900202DE9F04104460D4616461F460749085D083951F824103B46A9
:204300003246D1F80CC02946E04780464046BDE8F08100008839002070B505460E460E489D
:20432000007878B901210807FDF7CEFA0120FDF7A3FA01218804FDF7A7FA2C780020FDF73A
:204340009BFA03E0E8B2FCF742FB0446FF2C01D0204670BD3046FCE70A00002070B505464F
:204360000E460F48007878B901210807FDF7ACFA0120FDF781FA01218804FDF785FA2C68D9
:204380000020FDF779FA04E0E8B20421FCF709FB0446601C08B1204670BD3046FCE7000091
:2043A0000A00002070B504460D460C48007878B901210807FDF788FA0120FDF75DFA0121DF
:2043C0008804FDF761FA25700020FDF755FA03E0E0B22946FCF748FB70BD00000A00002099
:2043E00070B504460D460C48007878B901210807FDF76AFA0120FDF73FFA01218804FDF785
:2044000043FA25600020FDF737FA04E0E0B204222946FCF709FB70BD0A00002038B5054604
:20442000284600F091FD04463CB96946284601F076FC04460CB900202860204638BD0000BF
:204440002DE9FF4F95B01746012014904002139015A801F076F902900298002803DA0B2033
:2044600019B0BDE8F08FFB49029851F8200028B10021F84A029852F8200001700298C0B24B
:204480001190002010901198FFF7DEFE0190019800F0010008B10320E2E7019800F00400F3
:2044A00008B10A20DCE70CAA03211198FFF7E2FE50B90C9840B10C98B0F5004F04D80C9847
:2044C000401E0C99084008B101200C900FAA02211198FFF7CFFE08B10120C1E7BDF83C0060
:2044E000B0F5805F0BDCBDF83C00B0F5007F06DBBDF83C00401EBDF83C10084008B10120E9
:20450000AEE71FB1BDF83C00874205D3B7F1807F02D8781E384008B11320A1E7BDF83C00B0
:20452000B7FBF0F7189CBDF83C102298B0FBF1F00D90BDF83C100D9848430E900E9808B914
:204540000E208DE700BF07AA01211198FFF792FE08B1012084E7169800F0080008B1002034
:2045600000E03F2083460798584501D20E2077E70798A0EB0B0007900798802801D20E2084
:204580006EE700BF00BF802F01D9132068E7169800F0020050B1169800F00700022803D0FA
:2045A000169800F0010008B9032607E0169800F0010008B9132053E7022600BF00BF00BF59
:2045C0003D46032E2FD1A5B907984FEA504900200390012503E00398401C03906D009E49BE
:2045E000039831F8100020B1039831F810004845F1D90798B0FBF5F8082000EB8800BDF864
:204600003C100844401EB0FBF1F0059020200690002004904FF6F570804502D98F48804513
:204620003BD90E201CE7A5B907984FEA103900200390012503E00398401C03906D00884932
:20464000039831F8100020B1039831F810004845F1D90798B0FBF5F840F6F570804503D917
:20466000042000EB480906E0012608EB4800401C032101EB5009BDF83C004844401EBDF83D
:204680003C10B0FBF1F0059001200690BDF83C004FF48041B1FBF0F004900698584409900E
:2046A0000999059801440498084408900C9908980844401E491E20EA01010898A1EB00095F
:2046C000032E06D106984844069009984844099002E0059848440590089800EB0510A0EB81
:2046E0000B000799884201D90E20B9E6DDE90601091A0598091A0498081AB0FBF5F8032E67
:204700000AD14FF6F570804506D81FB96808071E00D031E00E20A3E6022E24D14FF6F5709D
:20472000804514D92FB94020B0EB450F01D36F0022E0169800F0020008B103261CE027B9ED
:2047400068000746802800D816E00E2088E640F6F570804507D827B968000746802800D83E
:204760000AE00E207CE6012E05D140F6F570804501D90E2074E600E022E700BFBDF83C203F
:204780000021204601F001F90B2236A1204601F0EFF8BDF83C1004F10B0001F04CFA657355
:2047A000069881B204F10E0001F045FA01202074032E01D1002001E04FF40070014604F14D
:2047C000110001F038FA0798B0F5803F06D2079881B204F1130001F02EFA04E004F12000DE
:2047E000079901F01CFAF82060753F2104F1180001F021FAFF2104F11A0001F01CFA5946D7
:2048000004F11C0001F00BFA032E37D100F097FF0146009004F1430001F001FA04F12400BE
:20482000059901F0FCF9022104F12C0001F0F7F9012104F1300001F0FEF9062104F1320052
:2048400001F0F9F9802084F84000292084F8420013220DE03000002054760008F5FFFF0FCC
:2048600046760008EBFE904D53444F53352E30009DA104F1470001F07BF819E000F05FFFBD
:204880000146009004F1270001F0C9F9059881B204F1160001F0CFF9802084F82400292055
:2048A00084F82600132295A104F12B0001F060F84AF6552104F5FF7001F0BDF901235A46F9
:2048C00021461198FFF710FD08B10120C8E5032E34D101230BF1060221461198FFF704FDD9
:2048E000BDF83C200021204601F04FF88849204601F095F9874904F5F27001F090F9A8F1F4
:20490000010104F5F47001F08AF9022104F5F67001F085F94AF6552104F5FF7001F08BF940
:2049200001230BF1070221461198FFF7DDFC01230BF1010221461198FFF7D6FC00212046ED
:204940000E9A01F022F809980B900020039042E0032E0FD16FF00701204601F060F9311F1B
:20496000201D01F05CF96FF0704104F1080001F056F909E0012E01D1674801E06FF0070087
:204980000146204601F04BF905980A9000BF0D990A98884201D90D9800E00A9881464B46D4
:2049A00021460B9A1198FFF79FFC08B1012057E5BDF83C200021204600F0E7FF0B984844FE
:2049C0000B900A98A0EB09000A900A980028DED10398401C039003980028B9D0032E01D11A
:2049E000284600E004980A9000BF0D990A98884201D90D9800E00A9881464B4621460B9AFD
:204A00001198FFF771FC08B1012029E50B9848440B900A98A0EB09000A900A980028E4D189
:204A200000BF032E02D10C2012900CE00798B0F5803F02D30620129005E0022E01D104204E
:204A400000E00120129000BF169800F00800E8BBBDF83C200021204600F097FF4AF65521D7
:204A600004F5FF7001F0E7F804F5DF7A00208AF8000001208AF801008AF8020000208AF840
:204A8000030012988AF804000798584443F6C161B0FBF1F9FE208AF805003F2040EA9900F1
:204AA0008AF806008AF8079059460AF1080001F0B6F80AF10C00079901F0B1F8012300228D
:204AC00021461198FFF710FC00B100E001E00120C6E4002211461198FFF7CCFB08B10120CE
:204AE000BEE40020BCE400004E4F204E414D45202020204641543332202020004E4F204E4B
:204B0000414D45202020204641542020202020005252614172724161F8FFFF00F7B582B027
:204B200016460398019001A800F00BFE0546002D02DA0B2005B0F0BD0C4850F825400CB1AC
:204B400000202070029810B10020029908700749029841F825000EB90020EBE7002202A949
:204B600003A800F053FB07463846E3E7300000202DE9F74F8EB0044616461CB9092011B068
:204B8000BDE8F08F06F03F06324602A90FA800F03DFB0546002D7DD10298039003A80F996E
:204BA00000F0E0FC05462DB99DF8370000F0800000B1062506F01C00002850D045B1042D5F
:204BC00003D103A8FFF7CEFA054646F008060AE09DF8120000F0110008B1072503E006F0B9
:204BE000040000B10825002D4AD106F00800002846D00A99029800F017FE814600F09FFDBA
:204C000000900A9901F10E00009901F008F820200A99C87200220A99029800F0EEFF0A99DB
:204C200001F11C00002100F0FAFF01200299C870B9F1000F24D00298006B01900022494674
:204C400003A800F08DFF0546D5B9DDE9011000F0A5FE0546A9F101000299086110E07DB9DA
:204C60009DF8120000F0100008B1042508E006F0020028B19DF8120000F0010000B107257D
:204C80005DB906F0080008B146F040060298006B206200E053E00A986062002D60D10A99CC
:204CA000029800F0C1FDA0600A9901F11C0000F0CEFDE0600020A062029820600298C088E2
:204CC000A080267400206074E06160614FF48052002104F12C0000F058FE06F0200070B34E
:204CE000E06860B3E0686061029840890299898900FB01FAA768D4F80C800CE03946204612
:204D000000F084FC0746012F00D80225781C00B90125A8EB0A080DB9D045EFD8A76175B9B7
:204D200002988089B8FBF0F100FB118038B139460298FEF7E2FEB0F1000B01D102250FE045
:204D400002988089B8FBF0F05844E061E26902994878012304F12C01FFF7A0FA00B10125ED
:204D60000DB100202060284609E72DE9FF4F85B0044615469A46DDF818B00020CAF80000DA
:204D800003A9204600F0CBFF0490049810B9607C049018B1049809B0BDE8F08F207C00F010
:204DA000010008B90720F6E76169E068401A01900198854200D9019DC1E060690399898941
:204DC000B0FBF1F201FB120000287ED1606903998989B0FBF1F003994989491E00EA0109F4
:204DE000B9F1000F1FD1606910B9A06802900CE0A06A28B120466169FEF764FE029004E012
:204E00002046A16900F002FC02900298022802D202206074BFE70298401C10B901206074BA
:204E2000B9E70298A061A1690398FEF766FE064616B902206074AEE74E4403988089B5FBAD
:204E4000F0F8B8F1000F2DD009EB080003994989884203D903984089A0EB09080399487849
:204E6000434632465946FFF719FA10B10120607491E7207C00F0800078B1E069801B4045BD
:204E80000BD2E169891B039B9B8901FB03B003998A8904F12C0100F06BFD0398808900FB0E
:204EA00008F742E0E069B04220D0207C00F0800080B1E26903994878012304F12C01FFF786
:204EC00013FA18B10120607465E710E0207C00F07F002074039948780123324604F12C0112
:204EE000FFF7DCF910B10120607454E7E661606903998989B0FBF1F201FB120003998989EE
:204F00000F1AAF4200D92F46606903998989B0FBF1F201FB120104F12C0008443A460146E1
:204F20000090584600F024FD00BFED1BDAF800003844CAF80000BB44606938446061002D29
:204F40007FF43BAF002026E7F8B504466946204600F0E5FE0646002E44D1207C00F040008D
:204F600000283FD0207C00F0800070B1E26900994878012304F12C01FFF7B6F908B1012064
:204F8000F8BD207C00F07F00207400F0D8FB0746216A009800F002FD06461EBB656AE87A45
:204FA00040F02000E8722946A268206800F025FE05F11C00E16800F032FE394605F116002D
:204FC00000F02DFE002105F1120000F034FE01200099C870009800F035FE0646207C00F0E6
:204FE000BF0020743046CBE72DE9FF4F85B0044615469B46069802900020CBF8000003A958
:20500000204600F08CFE0490049810B9607C049018B1049809B0BDE8F08F207C00F0020077
:2050200008B90720F6E700BF606928446169884202D26069C0F1FF35DEE06069039989896C
:20504000B0FBF1F201FB120000287CD1606903998989B0FBF1F003994989491E00EA010A72
:20506000BAF1000F26D1606938B9A76897B900212046FEF705FE07460CE0A06A28B1204665
:205080006169FEF71FFD074604E02046A169FEF7F7FD074607B9B2E0012F02D10220607413
:2050A000B8E7781C10B901206074B3E7A761A06800B9A760207C00F0800078B1E269039979
:2050C0004878012304F12C01FFF70EF910B1012060749FE7207C00F07F002074A16903984D
:2050E000FEF70BFD064616B90220607492E7564403988089B5FBF0F9B9F1000F31D00AEBA3
:20510000090003994989884203D903984089A0EB0A09039948784B4632460299FFF7E4F89E
:2051200010B10120607475E7E069801B484513D2E069831B0398B0F80CC0029803FB0C016C
:205140000398828900E020E004F12C0000F010FC207C00F07F0020740398808900FB09F86D
:2051600035E0E069B0420FD0E168606988420BD2039948780123324604F12C01FFF78EF8B1
:2051800010B10120607445E7E661606903998989B0FBF1F201FB120003998989A1EB000891
:2051A000A84500D9A846606903998989B0FBF1F201FB120104F12C00084442460190029906
:2051C00000F0D6FB207C40F08000207400BFA5EB0805DBF800004044CBF80000029840449A
:2051E0000290606940446061E1686069884201D9606900E0E068E060002D7FF41EAF00BFFC
:20520000207C40F040002074002003E72DE9F74F8AB000210B9801600A9800F092FA089073
:205220000898002803DA0B200DB0BDE8F08FC849089851F820400CB90C20F5E70B9804608F
:205240000C9800F0FE000C90207878B16078FFF73DF8814609F0010040B90C9820B109F034
:20526000040008B10A20DFE70020DDE700202070089860706078FEF7E7FF814609F0010009
:2052800008B10320D0E70C9820B109F0040008B10A20C9E7607804F10C020221FEF7EAFF9A
:2052A00008B10120C0E7A089B0F5805F07DCA089B0F5007F03DBA089411E084008B1012008
:2052C000B2E7002739462046FEF7B4FB0546022D01D02EDA2DE0002614E04FF4DF7000EB8E
:2052E000061104F13400084409900998007920B10998083000F0ABFA00E0002002A941F84C
:205300002600761C042EE8D3002606B1761E00BF02A850F8267027B139462046FEF78AFBF9
:2053200000E003200546022D03DB701C06460428EED3042D01D1012076E7022D01DB0D2094
:2053400072E704F13F0000F08EFAA189884201D00D2069E704F14A0000F085FA8046B8F1E9
:20536000000F04D104F1580000F071FA8046C4F81C804420005DA070A078012804D0A07885
:20538000022801D00D204FE7A07808FB00F84120005D6081608918B16089411E084008B102
:2053A0000D2041E704F1450000F05DFA2081A089C11700EBD1614911228992FBF1F301FBE6
:2053C000132109B10D202FE704F1470000F04BFA8346BBF1000F04D104F1540000F037FA68
:2053E000834604F1420000F03EFA0190019808B90D2019E7A089C11700EBD161491122894A
:2054000092FBF1F2019941441144079107998B4501D20D2008E70798ABEB00006189B0FBE7
:20542000F1FABAF1000F01D10D20FDE600254948824500D803254FF6F570824500D80225F8
:2054400040F6F570824500D801250DB90D20EBE60AF10200A061276201983844606207982B
:205460003844E062032D13D104F15E0000F0FBF908B10D20D8E6208908B10D20D4E604F141
:20548000600000F0E4F9A062A0698000069014E0208908B90D20C7E6606A4044A062022D07
:2054A00002D1A069400007E0207E00F00100A16901EB410100EB51000690A089401E06992A
:2054C0000844A189B0FBF1F0E169884201D90D20AAE64FF0FF306061206180202071032D0E
:2054E0002CD104F1640000F0BEF9012826D1791C204600F053FA08BB0020207104F232209B
:2055000000F0B1F94AF65521884217D104F1340000F09DF91049884210D104F5067000F077
:2055200096F90E49884209D104F5077000F08FF9606104F5087000F08AF9206125700848EE
:205540000088401C80B206490880E08000206BE630000020F5FFFF0F52526141727241616F
:20556000380000202DE9F3410446276802E00198401C0190019800782F28F8D00198007807
:205580005C28F4D00020A06001980078202808D280212B20015500212046FEF701FE054668
:2055A00031E000BF01A92046FEF7FAFB054605B128E02046FEF735FD05462B20065D3DB1A4
:2055C000042D04D100BF06F0040000B9052519E006F0040000B115E0A07900F0100008B9B6
:2055E00005250FE0B9892069B0FBF1F201FB120107F1340001EB00084146384600F014F908
:20560000A060CFE700BF2846BDE8FC812DE9F05F81460D46D9F80040022D02D3A069A842FE
:2056200002D84FF0010887E04FF0FF382078012804D002283AD003287AD156E02E4606EB91
:205640005606A089B6FBF0F0616A00EB010A5146204600F0A3F900B16DE03046761CA189BA
:20566000B0FBF1F201FB120104F13400475CA089B6FBF0F0616A00EB010A5146204600F059
:205680008DF900B157E0A089B6FBF0F100FB116104F13400405C47EA002705F0010008B1A8
:2056A000380901E0C7F30B00804644E0B4F80CA00AEBDA704010B5FBF0F0616A00EB010BE0
:2056C0005946204600F06AF900B134E06800A189B0FBF1F201FB120104F1340001EB000A5F
:2056E000504600F0C0F8804625E0B4F80CA04FEAEA700AEB90708010B5FBF0F0616A00EBEB
:20570000010B5946204600F049F900B113E0A800A189B0FBF1F201FB120104F1340001EB1E
:20572000000A504600F093F820F0704803E0FFE74FF0010800BF00BF4046BDE8F09F00201D
:20574000704730B502464FF0FF301568FDB1116800E0491C0D78212D02D30D783A2DF8D1B1
:205760000D783A2D12D1146814F8013B302B0ED3392B0CD88C420AD1A3F130052B46022D00
:2057800005D218464D1C2946156000E0002030BD70B50446206808490840B0F1005F09D130
:2057A000656806480560206880F3088800BF03480068804770BD00000000FE2F2800002003
:2057C0002DE9F05F0746884691460025BB464446AA461DE0E0780606A07846EA004660780B
:2057E00046EA002620780643241D2846691C8DB20C4941F82060B5F5007F07D100254FF488
:2058000000725846FDF746FD0BF5006B0AF1040ACA45DFD325B12A4602495846FDF73AFDB2
:20582000BDE8F09FA428002070B505460C4604F11A0000F018F806462878032805D104F195
:20584000140000F010F846EA0046304670BD0146C8788A7842EA00204A7842EA00200A78BE
:2058600042EA00207047014648780A7842EA0020704700007CB5002400254FF478402949B2
:205880000880FAF7A5FD41F28830FEF75BFB5A216D20FEF741FD5A2815D123A018210B46C7
:2058A000D222CDE9001000210846FBF773FEFEF731F90446FEF79CF9054624B91DB9A521A5
:2058C0006D20FEF76FFD0A212820FEF747FD1849884219D117A018210B46D222CDE900101E
:2058E00000210846FBF756FE4FF47A70FEF718FB00F034FAC4B21CB900212820FEF770FD8A
:205900000E48FFF745FF0BE00DA200210846FBF7BDFE40F6C410FEF703FB0848FFF738FFC7
:2059200000207CBD0C000020636F70790000000034125AA5777269746500000000000108AE
:20594000303A2F31372E626D70000000F0B503461D460C46002000BF15F8017B14F801CBF6
:20596000A7EB0C00561E321E01D00028F4D0F0BD30B503460C463AB100BF14F8015B03F8CE
:20598000015B551E2A1EF8D130BD10B5034600BF03F8011B541E221EFAD110BD70B504469D
:2059A0000D460026206BA84210D0204600F092F906465EB9607801232A4604F13401FEF74A
:2059C0006DFC10B14FF0FF3501262563304670BD2DE9F05F04460D4616464FF00209022D01
:2059E00072D3A069A8426FD92078012804D0022857D0032811D179E02F4607EB5707A089ED
:205A0000B7FBF0F0616A00EB010A51462046FFF7C5FF8146B9F1000F00D09DE038467F1C96
:205A2000A189B0FBF1F201FB120104F1340001EB000805F0010028B1F1B298F8000061F32C
:205A40001F1000E0304688F800000120E070A089B7FBF0F0616A00EB010A51462046FFF761
:205A60009DFF8146B9F1000F00D075E0A089B7FBF0F100FB117104F1340001EB000805F09A
:205A8000010010B1C6F3071006E098F8000000F0F000C6F30321084388F800000120E07005
:205AA0005AE0B4F80CA00AEBDA704010B5FBF0F0616A00EB010B59462046FFF76FFF814643
:205AC000B9F1000F01D047E047E06800A189B0FBF1F201FB120104F1340001EB000AB1B23D
:205AE000504600F0A8F80120E07035E0B4F80CA04FEAEA700AEB90708010B5FBF0F0616A2F
:205B000000EB010B59462046FFF748FF8146B9F1000F00D020E0A800A189B0FBF1F201FBA0
:205B2000120104F1340001EB000A5046FFF78FFE66F31B000646A800A189B0FBF1F201FBFE
:205B4000120104F1340001EB000A3146504600F066F80120E07000BF00BF4846BDE8F09F07
:205B60002DE9F04781460E4617464FF00008D9F80040022E02D3A069B04202D80220BDE867
:205B8000F08767B100BF4FF0FF3239462046FFF71FFF8046B8F1000F01D04046EFE700BFE4
:205BA00031464846FFF732FD054605B922E0012D01D10220E3E7681C08B90120DFE7002276
:205BC00031462046FFF704FF8046B8F1000F01D04046D4E7D4E90510801E814206D260698B
:205BE000401C6061207940F0010020712E46A069B042D5D800BF0020C1E770B506460C46C7
:205C00001546A9B204F11A0000F015F83078032804D1290C04F1140000F00DF870BD00F8C2
:205C2000011B090A00F8011B090A00F8011B090A00F8011B704700F8011B091200F8011BD9
:205C40007047000070B50446204600F043F80546002D38D1207803282ED1207901282BD18C
:205C6000A289002104F13400FFF78FFE4AF6552104F23220FFF7DFFF144904F13400FFF7DE
:205C8000CEFF134904F50670FFF7C9FF04F507706169FFF7C4FF04F508702169FFF7BFFF0C
:205CA000206A401C20636078012304F13401226BFEF71AFB00202071607800221146FEF7C7
:205CC000D9FA00B10125284670BD0000525261417272416170B504460025E078E8B1607856
:205CE000012304F13401226BFEF7FEFAA0B90020E070616A206B401AE16988420DD2A07858
:205D000002280AD1E369216BCA186078012304F13401FEF7E9FA00E00125284670BD70B500
:205D200004460D4609268CB1206878B12068007860B1A0882168C988884207D121684878AB
:205D4000FEF7C4FA00F0010000B900260EB9206800E000202860304670BD000070B5ADF57F
:205D6000825D0025002600210DF58050C1630024012228A104A8FEF7FBFE06466EB128A005
:205D800018210B46D222CDE9001000210846FBF701FC601E0DF5825D70BD079DB5F5702FE8
:205DA00036D833E041F23C036B444FF40062204904A8FEF7DAFF064666B11EA018210B466E
:205DC000D222CDE9001000210846FBF7E3FB4FF0FF30DFE71B4960180DF580518A8F144971
:205DE000FFF7EEFC0DF58050808F0444AC420DD304A8FEF713FB14A018210B46D222CDE935
:205E0000001000210846FBF7C5FB00E0CAE700BF0020BFE7303A2F657434702E62696E00BE
:205E20006F70656E2066696C65206661696C00003C000020726561642066696C6520666195
:205E4000696C00000000010877726974652066696C65207375636365737300004FF0407071
:205E6000E1EE100A7047000000000000000000000000000000003F40000000000000000003
:205E80003000400030004000000009000BC03D000BC03D00090018C024407FE02240318052
:205EA0000000180024C01B000D803240018003801C4027401C800740004010006000000072
:205EC0000000000000000000000000001F80204040200000402020401F80000000000900FB
:205EE00006001F80060009000000040004003F8004000400000000100060000000000000AF
:205F00000000040004000400040004000000000000400000000000000000002001C0060046
:205F20003800400000001F802040204020401F800000000010403FC000400000000018C024
:205F40002140224024401840000010802040244024401B80000002000D0011003FC001400F
:205F600000003C80244024402440238000001F80244024403440038000003000200027C001
:205F80003800200000001B802440244024401B8000001C0022C0224022401F8000000000E6
:205FA00000000840000000000000000000000460000000000000000004000A001100208076
:205FC000404009000900090009000900000000004040208011000A0004001800200023403A
:205FE0002400180000001F802040274029401F400000004007C039000F0001C00040204087
:206000003FC0244024401B8000001F802040204020403080000020403FC0204020401F80F1
:20602000000020403FC024402E4030C0000020403FC024402E00300000000F00108020401F
:2060400022403380020020403FC0040004003FC02040204020403FC0204020400000006084
:20606000202020203FC02000200020403FC024400B0030C0204020403FC020400040004004
:2060800000C03FC03C0003C03C003FC0000020403FC00C4023003FC020001F8020402040BB
:2060A00020401F80000020403FC024402400180000001F802140214020E01FA00000204062
:2060C0003FC02440260019C0004018C024402440224031800000300020403FC0204030004C
:2060E000000020003F80004000403F80200020003E0001C0070038002000380007C03C00A9
:2061000007C038000000204039C0060039C0204000002000384007C0384020000000304061
:2061200021C02640384020C00000000000007FE0402040200000000070000C000380004062
:2061400000000000402040207FE00000000000002000400020000000000000100010001070
:20616000001000100010000000004000000000000000000002800540054003C00040200080
:206180003FC0044004400380000000000380044004400640000000000380044024403FC07A
:2061A0000040000003800540054003400000000004401FC0244024402000000002E005500D
:2061C00005500650042020403FC00440040003C000400000044027C00040000000000010CB
:2061E0000010041027E00000000020403FC00140070004C00440204020403FC00040004086
:20620000000007C0040007C0040003C00000044007C00440040003C0004000000380044008
:20622000044003800000041007F00450044003800000000003800440045007F0001004400B
:2062400007C00240040004000000000006400540054004C00000000004001F800440004072
:206260000000040007800040044007C000400400070004C0018006000400060001C00700E0
:2062800001C006000000044006C0010006C0044000000410071004E0018006000400000088
:2062A000044005C00640044000000000000004007BE040200000000000000000FFF000009D
:2062C0000000000040207BE00400000000004000800040002000200040000000000000007F
:2062E000000000000000000000000000000000001FCC000C0000000000000000080030006F
:2063000060000800300060000000022003FC1E20022003FC1E200220000000000E1811046A
:206320003FFF10840C78000000000F0010840F3800C0077818840078000000780F8410C4EB
:2063400011240E9800E4008400080800680070000000000000000000000000000000000012
:2063600007E01818200440020000000040022004181807E00000000000000240024001801E
:206380000FF001800240024000000080008000800FF800800080008000000001000D000ED6
:2063A00000000000000000000000000000800080008000800080008000800000000C000C45
:2063C0000000000000000000000000000006001800600180060018002000000007F0080879
:2063E00010041004080807F000000000080408041FFC000400040000000000000E0C1014F5
:206400001024104411840E0C000000000C1810041104110412880C700000000000E00320CA
:20642000042408241FFC0024000000001F98108411041104108810700000000007F00888B5
:206440001104110418880070000000001C00100010FC13001C001000000000000E381144F0
:206460001084108411440E38000000000700088C10441044088807F000000000000000008F
:20648000030C030C0000000000000000000000010106000000000000000000000080014015
:2064A000022004100808100400000220022002200220022002200220000000001004080870
:2064C0000410022001400080000000000E001200100C106C10800F00000003E00C1813E470
:2064E000142417C4082807D000000004003C03C41C40074000E4001C000410041FFC110490
:20650000110411040E880070000003E00C1810041004100410081C10000010041FFC100481
:2065200010041004080807F0000010041FFC1104110417C410040818000010041FFC110480
:20654000110017C010000800000003E00C181004100410441C780040000010041FFC108421
:206560000080008010841FFC10040000100410041FFC1004100400000000000300011001D8
:2065800010011FFE10001000000010041FFC110403801464181C1004000010041FFC1004E3
:2065A000000400040004000C000010041FFC1F0000FC1F001FFC1004000010041FFC0C04EC
:2065C000030000E010181FFC100007F00808100410041004080807F0000010041FFC108478
:2065E0001080108010800F00000007F0081810241024101C080A07F2000010041FFC1104E2
:20660000110011C011300E0C000400000E1C11041084108410441C380000180010001004EE
:206620001FFC100410001800000010001FF810040004000410041FF8100010001E0011E066
:20664000001C007013801C0010001FC0103C00E01F0000E0103C1FC000001004180C163438
:2066600001C001C01634180C100410001C00130400FC13041C00100000000804101C1064E8
:20668000108413041C04101800000000000000007FFE4002400240020000000030000C0088
:2066A00003800060001C0003000000004002400240027FFE00000000000000000000200075
:2066C000400040004000200000000001000100010001000100010001000100004000400052
:2066E0002000000000000000000000000098012401440144014400FC000410001FFC00883B
:206700000104010400880070000000000070008801040104010400880000000000700088F0
:206720000104010411081FFC0004000000F8014401440144014400C8000000000104010439
:206740000FFC1104110411001800000000D601290129012901C90106000010041FFC008403
:2067600001000100010400FC000400000104190419FC0004000400000000000000030001CF
:206780000101190119FE0000000010041FFC0024004001B4010C0104000000001004100444
:2067A0001FFC0004000400000000010401FC0104010001FC0104010000FC010401FC008429
:2067C00001000100010400FC0004000000F8010401040104010400F80000010101FF008527
:2067E0000104010400880070000000000070008801040104010501FF00010104010401FC87
:2068000000840104010001800000000000CC01240124012401240198000000000100010072
:2068200007F80104010400000000010001F8000400040004010801FC00040100018001704C
:20684000000C001001600180010001F0010C003001C00030010C01F0010000000104018C89
:2068600000740170018C01040000010101810171000E001801600180010000000184010C10
:20688000013401440184010C0000000000000000000001003EFC400240020000000000002D
:2068A0000000FFFF0000000000000000400240023EFC01000000000000000000600080003B
:2068C000800040004000200020000000000000000000000000000000000000000000000078
:2068E00000000000000000000000000000000000000000000000000000000000000F8038D1
:206900000FFE380F80380000000000000000000000000000000000000100000600000C0058
